{
  "contractName": "Kittycontract",
  "abi": [
    {
      "anonymous": false,
      "inputs": [
        {
          "indexed": true,
          "internalType": "address",
          "name": "owner",
          "type": "address"
        },
        {
          "indexed": true,
          "internalType": "address",
          "name": "approved",
          "type": "address"
        },
        {
          "indexed": true,
          "internalType": "uint256",
          "name": "tokenId",
          "type": "uint256"
        }
      ],
      "name": "Approval",
      "type": "event"
    },
    {
      "anonymous": false,
      "inputs": [
        {
          "indexed": true,
          "internalType": "address",
          "name": "owner",
          "type": "address"
        },
        {
          "indexed": true,
          "internalType": "address",
          "name": "operator",
          "type": "address"
        },
        {
          "indexed": false,
          "internalType": "bool",
          "name": "approved",
          "type": "bool"
        }
      ],
      "name": "ApprovalForAll",
      "type": "event"
    },
    {
      "anonymous": false,
      "inputs": [
        {
          "indexed": false,
          "internalType": "address",
          "name": "owner",
          "type": "address"
        },
        {
          "indexed": false,
          "internalType": "uint256",
          "name": "tokenId",
          "type": "uint256"
        },
        {
          "indexed": false,
          "internalType": "uint32",
          "name": "dadId",
          "type": "uint32"
        },
        {
          "indexed": false,
          "internalType": "uint32",
          "name": "mumId",
          "type": "uint32"
        },
        {
          "indexed": false,
          "internalType": "uint256",
          "name": "genes",
          "type": "uint256"
        }
      ],
      "name": "Birth",
      "type": "event"
    },
    {
      "anonymous": false,
      "inputs": [
        {
          "indexed": true,
          "internalType": "address",
          "name": "previousOwner",
          "type": "address"
        },
        {
          "indexed": true,
          "internalType": "address",
          "name": "newOwner",
          "type": "address"
        }
      ],
      "name": "OwnershipTransferred",
      "type": "event"
    },
    {
      "anonymous": false,
      "inputs": [
        {
          "indexed": true,
          "internalType": "address",
          "name": "from",
          "type": "address"
        },
        {
          "indexed": true,
          "internalType": "address",
          "name": "to",
          "type": "address"
        },
        {
          "indexed": true,
          "internalType": "uint256",
          "name": "tokenId",
          "type": "uint256"
        }
      ],
      "name": "Transfer",
      "type": "event"
    },
    {
      "inputs": [],
      "name": "owner",
      "outputs": [
        {
          "internalType": "address",
          "name": "",
          "type": "address"
        }
      ],
      "stateMutability": "view",
      "type": "function"
    },
    {
      "inputs": [],
      "name": "renounceOwnership",
      "outputs": [],
      "stateMutability": "nonpayable",
      "type": "function"
    },
    {
      "inputs": [
        {
          "internalType": "address",
          "name": "newOwner",
          "type": "address"
        }
      ],
      "name": "transferOwnership",
      "outputs": [],
      "stateMutability": "nonpayable",
      "type": "function"
    },
    {
      "inputs": [
        {
          "internalType": "address",
          "name": "owner",
          "type": "address"
        }
      ],
      "name": "balanceOf",
      "outputs": [
        {
          "internalType": "uint256",
          "name": "balance",
          "type": "uint256"
        }
      ],
      "stateMutability": "view",
      "type": "function"
    },
    {
      "inputs": [],
      "name": "totalSupply",
      "outputs": [
        {
          "internalType": "uint256",
          "name": "total",
          "type": "uint256"
        }
      ],
      "stateMutability": "view",
      "type": "function"
    },
    {
      "inputs": [],
      "name": "name",
      "outputs": [
        {
          "internalType": "string",
          "name": "tokenName",
          "type": "string"
        }
      ],
      "stateMutability": "pure",
      "type": "function"
    },
    {
      "inputs": [],
      "name": "symbol",
      "outputs": [
        {
          "internalType": "string",
          "name": "tokenSymbol",
          "type": "string"
        }
      ],
      "stateMutability": "pure",
      "type": "function"
    },
    {
      "inputs": [
        {
          "internalType": "uint256",
          "name": "tokenid",
          "type": "uint256"
        }
      ],
      "name": "ownerOf",
      "outputs": [
        {
          "internalType": "address",
          "name": "owner",
          "type": "address"
        }
      ],
      "stateMutability": "view",
      "type": "function"
    },
    {
      "inputs": [
        {
          "internalType": "address",
          "name": "to",
          "type": "address"
        },
        {
          "internalType": "uint256",
          "name": "tokenId",
          "type": "uint256"
        }
      ],
      "name": "transfer",
      "outputs": [],
      "stateMutability": "nonpayable",
      "type": "function"
    },
    {
      "inputs": [
        {
          "internalType": "uint256",
          "name": "_genes",
          "type": "uint256"
        }
      ],
      "name": "createKittyGen0",
      "outputs": [],
      "stateMutability": "nonpayable",
      "type": "function"
    },
    {
      "inputs": [
        {
          "internalType": "uint256",
          "name": "_id",
          "type": "uint256"
        }
      ],
      "name": "getKitty",
      "outputs": [
        {
          "internalType": "uint256",
          "name": "genes",
          "type": "uint256"
        },
        {
          "internalType": "uint256",
          "name": "birthTime",
          "type": "uint256"
        },
        {
          "internalType": "uint32",
          "name": "mumId",
          "type": "uint32"
        },
        {
          "internalType": "uint32",
          "name": "dadId",
          "type": "uint32"
        },
        {
          "internalType": "uint16",
          "name": "generation",
          "type": "uint16"
        }
      ],
      "stateMutability": "view",
      "type": "function"
    },
    {
      "inputs": [
        {
          "internalType": "address",
          "name": "_approved",
          "type": "address"
        },
        {
          "internalType": "uint256",
          "name": "_tokenId",
          "type": "uint256"
        }
      ],
      "name": "approve",
      "outputs": [],
      "stateMutability": "nonpayable",
      "type": "function"
    },
    {
      "inputs": [
        {
          "internalType": "address",
          "name": "_operator",
          "type": "address"
        },
        {
          "internalType": "bool",
          "name": "_approved",
          "type": "bool"
        }
      ],
      "name": "setApprovalForAll",
      "outputs": [],
      "stateMutability": "nonpayable",
      "type": "function"
    },
    {
      "inputs": [
        {
          "internalType": "uint256",
          "name": "_tokenId",
          "type": "uint256"
        }
      ],
      "name": "getApproved",
      "outputs": [
        {
          "internalType": "address",
          "name": "",
          "type": "address"
        }
      ],
      "stateMutability": "view",
      "type": "function"
    },
    {
      "inputs": [
        {
          "internalType": "address",
          "name": "_owner",
          "type": "address"
        },
        {
          "internalType": "address",
          "name": "_operator",
          "type": "address"
        }
      ],
      "name": "isApprovedForAll",
      "outputs": [
        {
          "internalType": "bool",
          "name": "",
          "type": "bool"
        }
      ],
      "stateMutability": "view",
      "type": "function"
    },
    {
      "inputs": [
        {
          "internalType": "address",
          "name": "_from",
          "type": "address"
        },
        {
          "internalType": "address",
          "name": "_to",
          "type": "address"
        },
        {
          "internalType": "uint256",
          "name": "_tokenId",
          "type": "uint256"
        }
      ],
      "name": "safeTransferFrom",
      "outputs": [],
      "stateMutability": "nonpayable",
      "type": "function"
    },
    {
      "inputs": [
        {
          "internalType": "address",
          "name": "_from",
          "type": "address"
        },
        {
          "internalType": "address",
          "name": "_to",
          "type": "address"
        },
        {
          "internalType": "uint256",
          "name": "_tokenId",
          "type": "uint256"
        },
        {
          "internalType": "bytes",
          "name": "data",
          "type": "bytes"
        }
      ],
      "name": "safeTransferFrom",
      "outputs": [],
      "stateMutability": "nonpayable",
      "type": "function"
    },
    {
      "inputs": [
        {
          "internalType": "address",
          "name": "_from",
          "type": "address"
        },
        {
          "internalType": "address",
          "name": "_to",
          "type": "address"
        },
        {
          "internalType": "uint256",
          "name": "_tokenId",
          "type": "uint256"
        }
      ],
      "name": "transferFrom",
      "outputs": [],
      "stateMutability": "nonpayable",
      "type": "function"
    }
  ],
  "bytecode": "0x608060405234801561001057600080fd5b506000339050806000806101000a81548173ffffffffffffffffffffffffffffffffffffffff021916908373ffffffffffffffffffffffffffffffffffffffff1602179055508073ffffffffffffffffffffffffffffffffffffffff16600073ffffffffffffffffffffffffffffffffffffffff167f8be0079c531659141344cd1fd0a4f28419497f9722a3daafe3b4186f6b6457e060405160405180910390a350612326806100c16000396000f3fe608060405234801561001057600080fd5b50600436106101165760003560e01c80638da5cb5b116100a2578063b88d4fde11610071578063b88d4fde146102b9578063d5a776ca146102d5578063e985e9c5146102f1578063e98b7f4d14610321578063f2fde38b1461035557610116565b80638da5cb5b1461024557806395d89b4114610263578063a22cb46514610281578063a9059cbb1461029d57610116565b806323b872dd116100e957806323b872dd146101a357806342842e0e146101bf5780636352211e146101db57806370a082311461020b578063715018a61461023b57610116565b806306fdde031461011b578063081812fc14610139578063095ea7b31461016957806318160ddd14610185575b600080fd5b610123610371565b60405161013091906117ca565b60405180910390f35b610153600480360381019061014e919061182c565b6103ae565b604051610160919061189a565b60405180910390f35b610183600480360381019061017e91906118e1565b610432565b005b61018d6105c6565b60405161019a9190611930565b60405180910390f35b6101bd60048036038101906101b8919061194b565b6105d3565b005b6101d960048036038101906101d4919061194b565b6108b5565b005b6101f560048036038101906101f0919061182c565b6108ba565b604051610202919061189a565b60405180910390f35b6102256004803603810190610220919061199e565b610966565b6040516102329190611930565b60405180910390f35b6102436109af565b005b61024d610ae2565b60405161025a919061189a565b60405180910390f35b61026b610b0b565b60405161027891906117ca565b60405180910390f35b61029b60048036038101906102969190611a03565b610b48565b005b6102b760048036038101906102b291906118e1565b610c45565b005b6102d360048036038101906102ce9190611aa8565b610f8f565b005b6102ef60048036038101906102ea919061182c565b610f96565b005b61030b60048036038101906103069190611b30565b61101e565b6040516103189190611b7f565b60405180910390f35b61033b6004803603810190610336919061182c565b6110b2565b60405161034c959493929190611bd6565b60405180910390f35b61036f600480360381019061036a919061199e565b6111a0565b005b60606040518060400160405280600b81526020017f5363617265644b69747479000000000000000000000000000000000000000000815250905090565b600060018054905082106103f7576040517f08c379a00000000000000000000000000000000000000000000000000000000081526004016103ee90611c75565b60405180910390fd5b6004600083815260200190815260200160002060009054906101000a900473ffffffffffffffffffffffffffffffffffffffff169050919050565b6001805490508110610479576040517f08c379a000000000000000000000000000000000000000000000000000000000815260040161047090611ce1565b60405180910390fd5b60006003600083815260200190815260200160002060009054906101000a900473ffffffffffffffffffffffffffffffffffffffff1690503373ffffffffffffffffffffffffffffffffffffffff168173ffffffffffffffffffffffffffffffffffffffff161480610578575060011515600560008373ffffffffffffffffffffffffffffffffffffffff1673ffffffffffffffffffffffffffffffffffffffff16815260200190815260200160002060003373ffffffffffffffffffffffffffffffffffffffff1673ffffffffffffffffffffffffffffffffffffffff16815260200190815260200160002060009054906101000a900460ff161515145b6105b7576040517f08c379a00000000000000000000000000000000000000000000000000000000081526004016105ae90611d99565b60405180910390fd5b6105c18383611341565b505050565b6000600180549050905090565b600073ffffffffffffffffffffffffffffffffffffffff168273ffffffffffffffffffffffffffffffffffffffff1603610642576040517f08c379a000000000000000000000000000000000000000000000000000000000815260040161063990611e05565b60405180910390fd5b3073ffffffffffffffffffffffffffffffffffffffff168273ffffffffffffffffffffffffffffffffffffffff16036106b0576040517f08c379a00000000000000000000000000000000000000000000000000000000081526004016106a790611e97565b60405180910390fd5b60018054905081106106f7576040517f08c379a00000000000000000000000000000000000000000000000000000000081526004016106ee90611c75565b60405180910390fd5b60006003600083815260200190815260200160002060009054906101000a900473ffffffffffffffffffffffffffffffffffffffff16905060006004600084815260200190815260200160002060009054906101000a900473ffffffffffffffffffffffffffffffffffffffff1690503373ffffffffffffffffffffffffffffffffffffffff168273ffffffffffffffffffffffffffffffffffffffff16148061082e575060011515600560008473ffffffffffffffffffffffffffffffffffffffff1673ffffffffffffffffffffffffffffffffffffffff16815260200190815260200160002060003373ffffffffffffffffffffffffffffffffffffffff1673ffffffffffffffffffffffffffffffffffffffff16815260200190815260200160002060009054906101000a900460ff161515145b8061086457503373ffffffffffffffffffffffffffffffffffffffff168173ffffffffffffffffffffffffffffffffffffffff16145b6108a3576040517f08c379a000000000000000000000000000000000000000000000000000000000815260040161089a90611f4f565b60405180910390fd5b6108ae858585611397565b5050505050565b505050565b60006003600083815260200190815260200160002060009054906101000a900473ffffffffffffffffffffffffffffffffffffffff169050600073ffffffffffffffffffffffffffffffffffffffff168173ffffffffffffffffffffffffffffffffffffffff1603610961576040517f08c379a000000000000000000000000000000000000000000000000000000000815260040161095890611ce1565b60405180910390fd5b919050565b6000600260008373ffffffffffffffffffffffffffffffffffffffff1673ffffffffffffffffffffffffffffffffffffffff168152602001908152602001600020549050919050565b3373ffffffffffffffffffffffffffffffffffffffff166109ce610ae2565b73ffffffffffffffffffffffffffffffffffffffff1614610a24576040517f08c379a0000000000000000000000000000000000000000000000000000000008152600401610a1b90611fbb565b60405180910390fd5b600073ffffffffffffffffffffffffffffffffffffffff1660008054906101000a900473ffffffffffffffffffffffffffffffffffffffff1673ffffffffffffffffffffffffffffffffffffffff167f8be0079c531659141344cd1fd0a4f28419497f9722a3daafe3b4186f6b6457e060405160405180910390a360008060006101000a81548173ffffffffffffffffffffffffffffffffffffffff021916908373ffffffffffffffffffffffffffffffffffffffff160217905550565b60008060009054906101000a900473ffffffffffffffffffffffffffffffffffffffff16905090565b60606040518060400160405280600781526020017f534341524b495400000000000000000000000000000000000000000000000000815250905090565b80600560003373ffffffffffffffffffffffffffffffffffffffff1673ffffffffffffffffffffffffffffffffffffffff16815260200190815260200160002060008473ffffffffffffffffffffffffffffffffffffffff1673ffffffffffffffffffffffffffffffffffffffff16815260200190815260200160002060006101000a81548160ff0219169083151502179055508173ffffffffffffffffffffffffffffffffffffffff163373ffffffffffffffffffffffffffffffffffffffff167f17307eab39ab6107e8899845ad3d59bd9653f200f220920489ca2b5937696c3183604051610c399190611b7f565b60405180910390a35050565b600073ffffffffffffffffffffffffffffffffffffffff168273ffffffffffffffffffffffffffffffffffffffff1603610cb4576040517f08c379a0000000000000000000000000000000000000000000000000000000008152600401610cab90611e05565b60405180910390fd5b3073ffffffffffffffffffffffffffffffffffffffff168273ffffffffffffffffffffffffffffffffffffffff1603610d22576040517f08c379a0000000000000000000000000000000000000000000000000000000008152600401610d1990611e97565b60405180910390fd5b6001805490508110610d69576040517f08c379a0000000000000000000000000000000000000000000000000000000008152600401610d6090611c75565b60405180910390fd5b60006003600083815260200190815260200160002060009054906101000a900473ffffffffffffffffffffffffffffffffffffffff169050600073ffffffffffffffffffffffffffffffffffffffff168173ffffffffffffffffffffffffffffffffffffffff1603610e10576040517f08c379a0000000000000000000000000000000000000000000000000000000008152600401610e0790611ce1565b60405180910390fd5b8073ffffffffffffffffffffffffffffffffffffffff163373ffffffffffffffffffffffffffffffffffffffff161480610ea857503373ffffffffffffffffffffffffffffffffffffffff166004600084815260200190815260200160002060009054906101000a900473ffffffffffffffffffffffffffffffffffffffff1673ffffffffffffffffffffffffffffffffffffffff16145b80610f40575060011515600560008373ffffffffffffffffffffffffffffffffffffffff1673ffffffffffffffffffffffffffffffffffffffff16815260200190815260200160002060003373ffffffffffffffffffffffffffffffffffffffff1673ffffffffffffffffffffffffffffffffffffffff16815260200190815260200160002060009054906101000a900460ff161515145b610f7f576040517f08c379a0000000000000000000000000000000000000000000000000000000008152600401610f769061204d565b60405180910390fd5b610f8a818484611397565b505050565b5050505050565b3373ffffffffffffffffffffffffffffffffffffffff16610fb5610ae2565b73ffffffffffffffffffffffffffffffffffffffff161461100b576040517f08c379a000000000000000000000000000000000000000000000000000000000815260040161100290611fbb565b60405180910390fd5b61101a600080600084336115ae565b5050565b6000600560008473ffffffffffffffffffffffffffffffffffffffff1673ffffffffffffffffffffffffffffffffffffffff16815260200190815260200160002060008373ffffffffffffffffffffffffffffffffffffffff1673ffffffffffffffffffffffffffffffffffffffff16815260200190815260200160002060009054906101000a900460ff16905092915050565b60008060008060006001805490508610611101576040517f08c379a00000000000000000000000000000000000000000000000000000000081526004016110f8906120b9565b60405180910390fd5b600060018781548110611117576111166120d9565b5b90600052602060002090600202019050806000015495508060010160009054906101000a900467ffffffffffffffff1667ffffffffffffffff1694508060010160089054906101000a900463ffffffff16935080600101600c9054906101000a900463ffffffff1692508060010160109054906101000a900461ffff1691505091939590929450565b3373ffffffffffffffffffffffffffffffffffffffff166111bf610ae2565b73ffffffffffffffffffffffffffffffffffffffff1614611215576040517f08c379a000000000000000000000000000000000000000000000000000000000815260040161120c90611fbb565b60405180910390fd5b600073ffffffffffffffffffffffffffffffffffffffff168173ffffffffffffffffffffffffffffffffffffffff1603611284576040517f08c379a000000000000000000000000000000000000000000000000000000000815260040161127b9061217a565b60405180910390fd5b8073ffffffffffffffffffffffffffffffffffffffff1660008054906101000a900473ffffffffffffffffffffffffffffffffffffffff1673ffffffffffffffffffffffffffffffffffffffff167f8be0079c531659141344cd1fd0a4f28419497f9722a3daafe3b4186f6b6457e060405160405180910390a3806000806101000a81548173ffffffffffffffffffffffffffffffffffffffff021916908373ffffffffffffffffffffffffffffffffffffffff16021790555050565b816004600083815260200190815260200160002060006101000a81548173ffffffffffffffffffffffffffffffffffffffff021916908373ffffffffffffffffffffffffffffffffffffffff1602179055505050565b600073ffffffffffffffffffffffffffffffffffffffff168373ffffffffffffffffffffffffffffffffffffffff1614611471576000600260008573ffffffffffffffffffffffffffffffffffffffff1673ffffffffffffffffffffffffffffffffffffffff168152602001908152602001600020541161141b5761141a61219a565b5b600260008473ffffffffffffffffffffffffffffffffffffffff1673ffffffffffffffffffffffffffffffffffffffff168152602001908152602001600020600081548092919061146b906121f8565b91905055505b816003600083815260200190815260200160002060006101000a81548173ffffffffffffffffffffffffffffffffffffffff021916908373ffffffffffffffffffffffffffffffffffffffff160217905550600260008373ffffffffffffffffffffffffffffffffffffffff1673ffffffffffffffffffffffffffffffffffffffff168152602001908152602001600020600081548092919061151390612221565b91905055506004600082815260200190815260200160002060006101000a81549073ffffffffffffffffffffffffffffffffffffffff0219169055808273ffffffffffffffffffffffffffffffffffffffff168473ffffffffffffffffffffffffffffffffffffffff167fddf252ad1be2c89b69c2b068fc378daa952ba7f163c4a11628f55a4df523b3ef60405160405180910390a4505050565b6000806040518060a001604052808581526020014267ffffffffffffffff1681526020018863ffffffff1681526020018763ffffffff1681526020018661ffff16815250905060018190806001815401808255809150506001900390600052602060002090600202016000909190919091506000820151816000015560208201518160010160006101000a81548167ffffffffffffffff021916908367ffffffffffffffff16021790555060408201518160010160086101000a81548163ffffffff021916908363ffffffff160217905550606082015181600101600c6101000a81548163ffffffff021916908363ffffffff16021790555060808201518160010160106101000a81548161ffff021916908361ffff16021790555050506000600180805490506116df9190612269565b90506116ed60008583611397565b7fc1ea72b53c1f5c7777dc94a0f85ac93e5011bc83100167e5a57960135334534f8482898b8960405161172495949392919061229d565b60405180910390a1809250505095945050505050565b600081519050919050565b600082825260208201905092915050565b60005b83811015611774578082015181840152602081019050611759565b60008484015250505050565b6000601f19601f8301169050919050565b600061179c8261173a565b6117a68185611745565b93506117b6818560208601611756565b6117bf81611780565b840191505092915050565b600060208201905081810360008301526117e48184611791565b905092915050565b600080fd5b600080fd5b6000819050919050565b611809816117f6565b811461181457600080fd5b50565b60008135905061182681611800565b92915050565b600060208284031215611842576118416117ec565b5b600061185084828501611817565b91505092915050565b600073ffffffffffffffffffffffffffffffffffffffff82169050919050565b600061188482611859565b9050919050565b61189481611879565b82525050565b60006020820190506118af600083018461188b565b92915050565b6118be81611879565b81146118c957600080fd5b50565b6000813590506118db816118b5565b92915050565b600080604083850312156118f8576118f76117ec565b5b6000611906858286016118cc565b925050602061191785828601611817565b9150509250929050565b61192a816117f6565b82525050565b60006020820190506119456000830184611921565b92915050565b600080600060608486031215611964576119636117ec565b5b6000611972868287016118cc565b9350506020611983868287016118cc565b925050604061199486828701611817565b9150509250925092565b6000602082840312156119b4576119b36117ec565b5b60006119c2848285016118cc565b91505092915050565b60008115159050919050565b6119e0816119cb565b81146119eb57600080fd5b50565b6000813590506119fd816119d7565b92915050565b60008060408385031215611a1a57611a196117ec565b5b6000611a28858286016118cc565b9250506020611a39858286016119ee565b9150509250929050565b600080fd5b600080fd5b600080fd5b60008083601f840112611a6857611a67611a43565b5b8235905067ffffffffffffffff811115611a8557611a84611a48565b5b602083019150836001820283011115611aa157611aa0611a4d565b5b9250929050565b600080600080600060808688031215611ac457611ac36117ec565b5b6000611ad2888289016118cc565b9550506020611ae3888289016118cc565b9450506040611af488828901611817565b935050606086013567ffffffffffffffff811115611b1557611b146117f1565b5b611b2188828901611a52565b92509250509295509295909350565b60008060408385031215611b4757611b466117ec565b5b6000611b55858286016118cc565b9250506020611b66858286016118cc565b9150509250929050565b611b79816119cb565b82525050565b6000602082019050611b946000830184611b70565b92915050565b600063ffffffff82169050919050565b611bb381611b9a565b82525050565b600061ffff82169050919050565b611bd081611bb9565b82525050565b600060a082019050611beb6000830188611921565b611bf86020830187611921565b611c056040830186611baa565b611c126060830185611baa565b611c1f6080830184611bc7565b9695505050505050565b7f496e76616c696420746f6b656e20696400000000000000000000000000000000600082015250565b6000611c5f601083611745565b9150611c6a82611c29565b602082019050919050565b60006020820190508181036000830152611c8e81611c52565b9050919050565b7f546f6b656e20696420646f6573206e6f74206578697374000000000000000000600082015250565b6000611ccb601783611745565b9150611cd682611c95565b602082019050919050565b60006020820190508181036000830152611cfa81611cbe565b9050919050565b7f43616c6c6572206973206e6f74206f776e6572206f662074686520746f6b656e60008201527f206f7220616e20617070726f766572206f662074686520746f6b656e206f776e60208201527f6572000000000000000000000000000000000000000000000000000000000000604082015250565b6000611d83604283611745565b9150611d8e82611d01565b606082019050919050565b60006020820190508181036000830152611db281611d76565b9050919050565b7f696e76616c696420746f20616464726573730000000000000000000000000000600082015250565b6000611def601283611745565b9150611dfa82611db9565b602082019050919050565b60006020820190508181036000830152611e1e81611de2565b9050919050565b7f746f2063616e6e6f742062652074686520636f6e74726163742061646472657360008201527f7300000000000000000000000000000000000000000000000000000000000000602082015250565b6000611e81602183611745565b9150611e8c82611e25565b604082019050919050565b60006020820190508181036000830152611eb081611e74565b9050919050565b7f43616c6c6572206973206e6f74206f776e6572206f662074686520746f6b656e60008201527f206f7220616e206f70657261746f72206f662074686520746f6b656e206f776e60208201527f6572206f7220616e20617070726f766572206f662074686520746f6b656e0000604082015250565b6000611f39605e83611745565b9150611f4482611eb7565b606082019050919050565b60006020820190508181036000830152611f6881611f2c565b9050919050565b7f4f776e61626c653a2063616c6c6572206973206e6f7420746865206f776e6572600082015250565b6000611fa5602083611745565b9150611fb082611f6f565b602082019050919050565b60006020820190508181036000830152611fd481611f98565b9050919050565b7f6f6e6c79206f776e65722f617070726f7665722063616e206d616b652061207460008201527f72616e7366657200000000000000000000000000000000000000000000000000602082015250565b6000612037602783611745565b915061204282611fdb565b604082019050919050565b600060208201905081810360008301526120668161202a565b9050919050565b7f496e76616c696420636174206964000000000000000000000000000000000000600082015250565b60006120a3600e83611745565b91506120ae8261206d565b602082019050919050565b600060208201905081810360008301526120d281612096565b9050919050565b7f4e487b7100000000000000000000000000000000000000000000000000000000600052603260045260246000fd5b7f4f776e61626c653a206e6577206f776e657220697320746865207a65726f206160008201527f6464726573730000000000000000000000000000000000000000000000000000602082015250565b6000612164602683611745565b915061216f82612108565b604082019050919050565b6000602082019050818103600083015261219381612157565b9050919050565b7f4e487b7100000000000000000000000000000000000000000000000000000000600052600160045260246000fd5b7f4e487b7100000000000000000000000000000000000000000000000000000000600052601160045260246000fd5b6000612203826117f6565b915060008203612216576122156121c9565b5b600182039050919050565b600061222c826117f6565b91507fffffffffffffffffffffffffffffffffffffffffffffffffffffffffffffffff820361225e5761225d6121c9565b5b600182019050919050565b6000612274826117f6565b915061227f836117f6565b9250828203905081811115612297576122966121c9565b5b92915050565b600060a0820190506122b2600083018861188b565b6122bf6020830187611921565b6122cc6040830186611baa565b6122d96060830185611baa565b6122e66080830184611921565b969550505050505056fea2646970667358221220e7f256d1755db8a8a7b5a1625d1218311708514943292604a1a28ad6c286aded64736f6c63430008110033",
  "immutableReferences": {},
  "source": "// SPDX-License-Identifier: MIT\n\npragma solidity ^0.8.0;\n\nimport \"./IERC721.sol\";\nimport \"./Ownable.sol\";\n\ncontract Kittycontract is IERC721, Ownable {\n    struct Kitty {\n        uint256 genes;\n        uint64 birthTime;\n        uint32 mumId;\n        uint32 dadId;\n        uint16 generation;\n    }\n\n    event Birth(\n        address owner,\n        uint256 tokenId,\n        uint32 dadId,\n        uint32 mumId,\n        uint256 genes\n    );\n\n    Kitty[] kitties;\n\n    //Associates an EOA with its balance\n    mapping(address => uint256) private balances;\n\n    //Associates a token id with its owner\n    mapping(uint256 => address) private tokenowners;\n\n    //Approvers of a token id\n    mapping(uint256 => address) private tokenApprovers;\n    mapping(address => mapping(address => bool)) private ownerApprovers;\n\n    function balanceOf(address owner) external view returns (uint256 balance) {\n        return balances[owner];\n    }\n\n    function totalSupply() external view returns (uint256 total) {\n        return kitties.length;\n    }\n\n    function name() external pure returns (string memory tokenName) {\n        return \"ScaredKitty\";\n    }\n\n    function symbol() external pure returns (string memory tokenSymbol) {\n        return \"SCARKIT\";\n    }\n\n    // Reverts if a token id does not exists?\n    function ownerOf(uint256 tokenid) external view returns (address owner) {\n        owner = tokenowners[tokenid];\n\n        require(owner != address(0), \"Token id does not exist\");\n    }\n\n    function transfer(address to, uint256 tokenId) external {\n        require(to != address(0), \"invalid to address\");\n        require(to != address(this), \"to cannot be the contract address\");\n        require(tokenId < kitties.length, \"Invalid token id\");\n\n        address owner = tokenowners[tokenId];\n\n        require(owner != address(0), \"Token id does not exist\");\n        require(msg.sender == owner || tokenApprovers[tokenId] == msg.sender || ownerApprovers[owner][msg.sender] == true, \"only owner/approver can make a transfer\");\n\n        _transfer(owner, to, tokenId);\n    }\n\n    function _transfer(\n        address _from,\n        address _to,\n        uint256 _tokenId\n    ) internal {\n        if (_from != address(0)) {\n            assert(balances[_from] > 0);\n\n            balances[_from]--;\n        }\n\n        tokenowners[_tokenId] = _to;\n        balances[_to]++;\n        // Account approved on this token should be revoked\n        delete tokenApprovers[_tokenId];\n\n        emit Transfer(_from, _to, _tokenId);\n    }\n\n    function createKittyGen0(uint256 _genes) public onlyOwner {\n        _createKitty(0, 0, 0, _genes, msg.sender);\n    }\n\n    function getKitty(uint256 _id)\n        public\n        view\n        returns (\n            uint256 genes,\n            uint256 birthTime,\n            uint32 mumId,\n            uint32 dadId,\n            uint16 generation\n        )\n    {\n        require(_id < kitties.length, \"Invalid cat id\");\n\n        Kitty storage kitty = kitties[_id];\n\n        genes = kitty.genes;\n        birthTime = kitty.birthTime;\n        mumId = kitty.mumId;\n        dadId = kitty.dadId;\n        generation = kitty.generation;\n    }\n\n    function _createKitty(\n        uint32 _mumId,\n        uint32 _dadId,\n        uint16 _generation,\n        uint256 _genes,\n        address _owner\n    ) internal returns (uint256) {\n        Kitty memory _kitty = Kitty({\n            genes: _genes,\n            birthTime: uint64(block.timestamp),\n            mumId: _mumId,\n            dadId: _dadId,\n            generation: _generation\n        });\n\n        kitties.push(_kitty);\n        uint256 newKittyTokenId = kitties.length - 1;\n\n        _transfer(address(0), _owner, newKittyTokenId);\n\n        emit Birth(_owner, newKittyTokenId, _dadId, _mumId, _genes);\n\n        return newKittyTokenId;\n    }\n\n    function approve(address _approved, uint256 _tokenId) external{\n\n        require(_tokenId < kitties.length, \"Token id does not exist\");\n\n        //msg.sender must be the owner or an existing operator of tokenId\n        address tokenOwner = tokenowners[_tokenId];\n\n        require( (tokenOwner == msg.sender || ownerApprovers[tokenOwner][msg.sender] == true) , 'Caller is not owner of the token or an approver of the token owner'); \n\n        _approve(_approved, _tokenId);        \n\n    }\n\n    /// @notice Change or reaffirm the approved address for an NFT\n    /// @dev The zero address indicates there is no approved address.\n    ///  Throws unless `msg.sender` is the current NFT owner, or an authorized\n    ///  operator of the current owner.\n    /// @param _approved The new approved NFT controller\n    /// @param _tokenId The NFT to approve\n    function _approve(address _approved, uint256 _tokenId) private{\n\n        tokenApprovers[_tokenId] = _approved;     \n    }\n\n    /// @notice Enable or disable approval for a third party (\"operator\") to manage\n    ///  all of `msg.sender`'s assets\n    /// @dev Emits the ApprovalForAll event. The contract MUST allow\n    ///  multiple operators per owner.\n    /// @param _operator Address to add to the set of authorized operators\n    /// @param _approved True if the operator is approved, false to revoke approval\n    function setApprovalForAll(address _operator, bool _approved) external{\n        \n        ownerApprovers[msg.sender][_operator] = _approved;\n\n        emit ApprovalForAll(msg.sender, _operator, _approved);\n    }\n\n    /// @notice Get the approved address for a single NFT\n    /// @dev Throws if `_tokenId` is not a valid NFT.\n    /// @param _tokenId The NFT to find the approved address for\n    /// @return The approved address for this NFT, or the zero address if there is none\n    function getApproved(uint256 _tokenId) external view returns (address){\n        require(_tokenId < kitties.length, \"Invalid token id\");\n\n        return tokenApprovers[_tokenId];\n\n    }\n\n    /// @notice Query if an address is an authorized operator for another address\n    /// @param _owner The address that owns the NFTs\n    /// @param _operator The address that acts on behalf of the owner\n    /// @return True if `_operator` is an approved operator for `_owner`, false otherwise\n    function isApprovedForAll(address _owner, address _operator) external view returns (bool){\n        return ownerApprovers[_owner][_operator];\n    }\n\n    /// @notice Transfers the ownership of an NFT from one address to another address\n    /// @dev Throws unless `msg.sender` is the current owner, an authorized\n    ///  operator, or the approved address for this NFT. Throws if `_from` is\n    ///  not the current owner. Throws if `_to` is the zero address. Throws if\n    ///  `_tokenId` is not a valid NFT. When transfer is complete, this function\n    ///  checks if `_to` is a smart contract (code size > 0). If so, it calls\n    ///  `onERC721Received` on `_to` and throws if the return value is not\n    ///  `bytes4(keccak256(\"onERC721Received(address,address,uint256,bytes)\"))`.\n    /// @param _from The current owner of the NFT\n    /// @param _to The new owner\n    /// @param _tokenId The NFT to transfer\n    /// @param data Additional data with no specified format, sent in call to `_to`\n    function safeTransferFrom(address _from, address _to, uint256 _tokenId, bytes calldata data) external{\n\n    }\n\n    /// @notice Transfers the ownership of an NFT from one address to another address\n    /// @dev This works identically to the other function with an extra data parameter,\n    ///  except this function just sets data to \"\".\n    /// @param _from The current owner of the NFT\n    /// @param _to The new owner\n    /// @param _tokenId The NFT to transfer\n    function safeTransferFrom(address _from, address _to, uint256 _tokenId) external{\n    \n    }\n\n    /// @notice Transfer ownership of an NFT -- THE CALLER IS RESPONSIBLE\n    ///  TO CONFIRM THAT `_to` IS CAPABLE OF RECEIVING NFTS OR ELSE\n    ///  THEY MAY BE PERMANENTLY LOST\n    /// @dev Throws unless `msg.sender` is the current owner, an authorized\n    ///  operator, or the approved address for this NFT. Throws if `_from` is\n    ///  not the current owner. Throws if `_to` is the zero address. Throws if\n    ///  `_tokenId` is not a valid NFT.\n    /// @param _from The current owner of the NFT\n    /// @param _to The new owner\n    /// @param _tokenId The NFT to transfer\n    function transferFrom(address _from, address _to, uint256 _tokenId) external{\n        //msg.sender must be the owner or an existing operator of tokenId\n        require(_to != address(0), \"invalid to address\");\n        require(_to != address(this), \"to cannot be the contract address\");\n        require(_tokenId < kitties.length, \"Invalid token id\");\n\n        address tokenOwner = tokenowners[_tokenId];\n        address approver = tokenApprovers[_tokenId];\n\n        require( (tokenOwner == msg.sender \n        || ownerApprovers[tokenOwner][msg.sender] == true\n        || approver == msg.sender) , 'Caller is not owner of the token or an operator of the token owner or an approver of the token'); \n\n        _transfer(_from, _to, _tokenId);\n\n    }    \n}\n",
  "sourcePath": "/media/psf/Ivan/NFT-marketplace/mygitrepo3/moralisacademy-nftmarketplace/contracts/Kittycontract.sol",
  "compiler": {
    "name": "solc",
    "version": "0.8.17+commit.8df45f5f.Emscripten.clang"
  },
  "schemaVersion": "3.4.10",
  "updatedAt": "2023-01-06T09:52:02.643Z",
  "devdoc": {
    "kind": "dev",
    "methods": {
      "approve(address,uint256)": {
        "details": "The zero address indicates there is no approved address.  Throws unless `msg.sender` is the current NFT owner, or an authorized  operator of the current owner.",
        "params": {
          "_approved": "The new approved NFT controller",
          "_tokenId": "The NFT to approve"
        }
      },
      "balanceOf(address)": {
        "details": "Returns the number of tokens in ``owner``'s account."
      },
      "getApproved(uint256)": {
        "details": "Throws if `_tokenId` is not a valid NFT.",
        "params": {
          "_tokenId": "The NFT to find the approved address for"
        },
        "returns": {
          "_0": "The approved address for this NFT, or the zero address if there is none"
        }
      },
      "isApprovedForAll(address,address)": {
        "params": {
          "_operator": "The address that acts on behalf of the owner",
          "_owner": "The address that owns the NFTs"
        },
        "returns": {
          "_0": "True if `_operator` is an approved operator for `_owner`, false otherwise"
        }
      },
      "owner()": {
        "details": "Returns the address of the current owner."
      },
      "renounceOwnership()": {
        "details": "Leaves the contract without owner. It will not be possible to call `onlyOwner` functions anymore. Can only be called by the current owner. NOTE: Renouncing ownership will leave the contract without an owner, thereby removing any functionality that is only available to the owner."
      },
      "safeTransferFrom(address,address,uint256)": {
        "details": "This works identically to the other function with an extra data parameter,  except this function just sets data to \"\".",
        "params": {
          "_from": "The current owner of the NFT",
          "_to": "The new owner",
          "_tokenId": "The NFT to transfer"
        }
      },
      "safeTransferFrom(address,address,uint256,bytes)": {
        "details": "Throws unless `msg.sender` is the current owner, an authorized  operator, or the approved address for this NFT. Throws if `_from` is  not the current owner. Throws if `_to` is the zero address. Throws if  `_tokenId` is not a valid NFT. When transfer is complete, this function  checks if `_to` is a smart contract (code size > 0). If so, it calls  `onERC721Received` on `_to` and throws if the return value is not  `bytes4(keccak256(\"onERC721Received(address,address,uint256,bytes)\"))`.",
        "params": {
          "_from": "The current owner of the NFT",
          "_to": "The new owner",
          "_tokenId": "The NFT to transfer",
          "data": "Additional data with no specified format, sent in call to `_to`"
        }
      },
      "setApprovalForAll(address,bool)": {
        "details": "Emits the ApprovalForAll event. The contract MUST allow  multiple operators per owner.",
        "params": {
          "_approved": "True if the operator is approved, false to revoke approval",
          "_operator": "Address to add to the set of authorized operators"
        }
      },
      "transferFrom(address,address,uint256)": {
        "details": "Throws unless `msg.sender` is the current owner, an authorized  operator, or the approved address for this NFT. Throws if `_from` is  not the current owner. Throws if `_to` is the zero address. Throws if  `_tokenId` is not a valid NFT.",
        "params": {
          "_from": "The current owner of the NFT",
          "_to": "The new owner",
          "_tokenId": "The NFT to transfer"
        }
      },
      "transferOwnership(address)": {
        "details": "Transfers ownership of the contract to a new account (`newOwner`). Can only be called by the current owner."
      }
    },
    "version": 1
  },
  "userdoc": {
    "kind": "user",
    "methods": {
      "approve(address,uint256)": {
        "notice": "Change or reaffirm the approved address for an NFT"
      },
      "getApproved(uint256)": {
        "notice": "Get the approved address for a single NFT"
      },
      "isApprovedForAll(address,address)": {
        "notice": "Query if an address is an authorized operator for another address"
      },
      "safeTransferFrom(address,address,uint256)": {
        "notice": "Transfers the ownership of an NFT from one address to another address"
      },
      "safeTransferFrom(address,address,uint256,bytes)": {
        "notice": "Transfers the ownership of an NFT from one address to another address"
      },
      "setApprovalForAll(address,bool)": {
        "notice": "Enable or disable approval for a third party (\"operator\") to manage  all of `msg.sender`'s assets"
      },
      "transferFrom(address,address,uint256)": {
        "notice": "Transfer ownership of an NFT -- THE CALLER IS RESPONSIBLE  TO CONFIRM THAT `_to` IS CAPABLE OF RECEIVING NFTS OR ELSE  THEY MAY BE PERMANENTLY LOST"
      }
    },
    "version": 1
  }
}