{
  "contractName": "Kittycontract",
  "abi": [
    {
      "anonymous": false,
      "inputs": [
        {
          "indexed": true,
          "internalType": "address",
          "name": "owner",
          "type": "address"
        },
        {
          "indexed": true,
          "internalType": "address",
          "name": "approved",
          "type": "address"
        },
        {
          "indexed": true,
          "internalType": "uint256",
          "name": "tokenId",
          "type": "uint256"
        }
      ],
      "name": "Approval",
      "type": "event"
    },
    {
      "anonymous": false,
      "inputs": [
        {
          "indexed": true,
          "internalType": "address",
          "name": "owner",
          "type": "address"
        },
        {
          "indexed": true,
          "internalType": "address",
          "name": "operator",
          "type": "address"
        },
        {
          "indexed": false,
          "internalType": "bool",
          "name": "approved",
          "type": "bool"
        }
      ],
      "name": "ApprovalForAll",
      "type": "event"
    },
    {
      "anonymous": false,
      "inputs": [
        {
          "indexed": false,
          "internalType": "address",
          "name": "owner",
          "type": "address"
        },
        {
          "indexed": false,
          "internalType": "uint256",
          "name": "tokenId",
          "type": "uint256"
        },
        {
          "indexed": false,
          "internalType": "uint32",
          "name": "dadId",
          "type": "uint32"
        },
        {
          "indexed": false,
          "internalType": "uint32",
          "name": "mumId",
          "type": "uint32"
        },
        {
          "indexed": false,
          "internalType": "uint256",
          "name": "genes",
          "type": "uint256"
        }
      ],
      "name": "Birth",
      "type": "event"
    },
    {
      "anonymous": false,
      "inputs": [
        {
          "indexed": false,
          "internalType": "uint256",
          "name": "num",
          "type": "uint256"
        }
      ],
      "name": "DeleteMe",
      "type": "event"
    },
    {
      "anonymous": false,
      "inputs": [
        {
          "indexed": true,
          "internalType": "address",
          "name": "previousOwner",
          "type": "address"
        },
        {
          "indexed": true,
          "internalType": "address",
          "name": "newOwner",
          "type": "address"
        }
      ],
      "name": "OwnershipTransferred",
      "type": "event"
    },
    {
      "anonymous": false,
      "inputs": [
        {
          "indexed": true,
          "internalType": "address",
          "name": "from",
          "type": "address"
        },
        {
          "indexed": true,
          "internalType": "address",
          "name": "to",
          "type": "address"
        },
        {
          "indexed": true,
          "internalType": "uint256",
          "name": "tokenId",
          "type": "uint256"
        }
      ],
      "name": "Transfer",
      "type": "event"
    },
    {
      "inputs": [],
      "name": "owner",
      "outputs": [
        {
          "internalType": "address",
          "name": "",
          "type": "address"
        }
      ],
      "stateMutability": "view",
      "type": "function",
      "constant": true
    },
    {
      "inputs": [],
      "name": "renounceOwnership",
      "outputs": [],
      "stateMutability": "nonpayable",
      "type": "function"
    },
    {
      "inputs": [
        {
          "internalType": "address",
          "name": "newOwner",
          "type": "address"
        }
      ],
      "name": "transferOwnership",
      "outputs": [],
      "stateMutability": "nonpayable",
      "type": "function"
    },
    {
      "inputs": [
        {
          "internalType": "address",
          "name": "owner",
          "type": "address"
        }
      ],
      "name": "balanceOf",
      "outputs": [
        {
          "internalType": "uint256",
          "name": "balance",
          "type": "uint256"
        }
      ],
      "stateMutability": "view",
      "type": "function",
      "constant": true
    },
    {
      "inputs": [],
      "name": "totalSupply",
      "outputs": [
        {
          "internalType": "uint256",
          "name": "total",
          "type": "uint256"
        }
      ],
      "stateMutability": "view",
      "type": "function",
      "constant": true
    },
    {
      "inputs": [],
      "name": "name",
      "outputs": [
        {
          "internalType": "string",
          "name": "tokenName",
          "type": "string"
        }
      ],
      "stateMutability": "pure",
      "type": "function",
      "constant": true
    },
    {
      "inputs": [],
      "name": "symbol",
      "outputs": [
        {
          "internalType": "string",
          "name": "tokenSymbol",
          "type": "string"
        }
      ],
      "stateMutability": "pure",
      "type": "function",
      "constant": true
    },
    {
      "inputs": [
        {
          "internalType": "uint256",
          "name": "tokenid",
          "type": "uint256"
        }
      ],
      "name": "ownerOf",
      "outputs": [
        {
          "internalType": "address",
          "name": "owner",
          "type": "address"
        }
      ],
      "stateMutability": "view",
      "type": "function",
      "constant": true
    },
    {
      "inputs": [],
      "name": "testView",
      "outputs": [
        {
          "internalType": "uint256",
          "name": "num",
          "type": "uint256"
        }
      ],
      "stateMutability": "view",
      "type": "function",
      "constant": true
    },
    {
      "inputs": [],
      "name": "testWrite",
      "outputs": [
        {
          "internalType": "uint256",
          "name": "num",
          "type": "uint256"
        }
      ],
      "stateMutability": "nonpayable",
      "type": "function"
    },
    {
      "inputs": [
        {
          "internalType": "address",
          "name": "to",
          "type": "address"
        },
        {
          "internalType": "uint256",
          "name": "tokenId",
          "type": "uint256"
        }
      ],
      "name": "transfer",
      "outputs": [],
      "stateMutability": "nonpayable",
      "type": "function"
    },
    {
      "inputs": [
        {
          "internalType": "uint256",
          "name": "_genes",
          "type": "uint256"
        }
      ],
      "name": "createKittyGen0",
      "outputs": [
        {
          "internalType": "uint32",
          "name": "catId",
          "type": "uint32"
        }
      ],
      "stateMutability": "nonpayable",
      "type": "function"
    },
    {
      "inputs": [
        {
          "internalType": "uint32",
          "name": "_mumId",
          "type": "uint32"
        },
        {
          "internalType": "uint32",
          "name": "_dadId",
          "type": "uint32"
        }
      ],
      "name": "breed",
      "outputs": [
        {
          "internalType": "uint32",
          "name": "childId",
          "type": "uint32"
        }
      ],
      "stateMutability": "nonpayable",
      "type": "function"
    },
    {
      "inputs": [
        {
          "internalType": "uint256",
          "name": "_id",
          "type": "uint256"
        }
      ],
      "name": "getKitty",
      "outputs": [
        {
          "internalType": "uint256",
          "name": "genes",
          "type": "uint256"
        },
        {
          "internalType": "uint256",
          "name": "birthTime",
          "type": "uint256"
        },
        {
          "internalType": "uint32",
          "name": "mumId",
          "type": "uint32"
        },
        {
          "internalType": "uint32",
          "name": "dadId",
          "type": "uint32"
        },
        {
          "internalType": "uint16",
          "name": "generation",
          "type": "uint16"
        }
      ],
      "stateMutability": "view",
      "type": "function",
      "constant": true
    },
    {
      "inputs": [
        {
          "internalType": "address",
          "name": "_approved",
          "type": "address"
        },
        {
          "internalType": "uint256",
          "name": "_tokenId",
          "type": "uint256"
        }
      ],
      "name": "approve",
      "outputs": [],
      "stateMutability": "nonpayable",
      "type": "function"
    },
    {
      "inputs": [
        {
          "internalType": "address",
          "name": "_operator",
          "type": "address"
        },
        {
          "internalType": "bool",
          "name": "_approved",
          "type": "bool"
        }
      ],
      "name": "setApprovalForAll",
      "outputs": [],
      "stateMutability": "nonpayable",
      "type": "function"
    },
    {
      "inputs": [
        {
          "internalType": "uint256",
          "name": "_tokenId",
          "type": "uint256"
        }
      ],
      "name": "getApproved",
      "outputs": [
        {
          "internalType": "address",
          "name": "",
          "type": "address"
        }
      ],
      "stateMutability": "view",
      "type": "function",
      "constant": true
    },
    {
      "inputs": [
        {
          "internalType": "address",
          "name": "_owner",
          "type": "address"
        },
        {
          "internalType": "address",
          "name": "_operator",
          "type": "address"
        }
      ],
      "name": "isApprovedForAll",
      "outputs": [
        {
          "internalType": "bool",
          "name": "",
          "type": "bool"
        }
      ],
      "stateMutability": "view",
      "type": "function",
      "constant": true
    },
    {
      "inputs": [
        {
          "internalType": "address",
          "name": "",
          "type": "address"
        },
        {
          "internalType": "address",
          "name": "",
          "type": "address"
        },
        {
          "internalType": "uint256",
          "name": "",
          "type": "uint256"
        },
        {
          "internalType": "bytes",
          "name": "",
          "type": "bytes"
        }
      ],
      "name": "onERC721Received",
      "outputs": [
        {
          "internalType": "bytes4",
          "name": "",
          "type": "bytes4"
        }
      ],
      "stateMutability": "pure",
      "type": "function",
      "constant": true
    },
    {
      "inputs": [
        {
          "internalType": "bytes4",
          "name": "interfaceID",
          "type": "bytes4"
        }
      ],
      "name": "supportsInterface",
      "outputs": [
        {
          "internalType": "bool",
          "name": "",
          "type": "bool"
        }
      ],
      "stateMutability": "pure",
      "type": "function",
      "constant": true
    },
    {
      "inputs": [
        {
          "internalType": "address",
          "name": "_from",
          "type": "address"
        },
        {
          "internalType": "address",
          "name": "_to",
          "type": "address"
        },
        {
          "internalType": "uint256",
          "name": "_tokenId",
          "type": "uint256"
        }
      ],
      "name": "safeTransferFrom",
      "outputs": [],
      "stateMutability": "nonpayable",
      "type": "function"
    },
    {
      "inputs": [
        {
          "internalType": "address",
          "name": "_from",
          "type": "address"
        },
        {
          "internalType": "address",
          "name": "_to",
          "type": "address"
        },
        {
          "internalType": "uint256",
          "name": "_tokenId",
          "type": "uint256"
        },
        {
          "internalType": "bytes",
          "name": "data",
          "type": "bytes"
        }
      ],
      "name": "safeTransferFrom",
      "outputs": [],
      "stateMutability": "nonpayable",
      "type": "function"
    },
    {
      "inputs": [
        {
          "internalType": "address",
          "name": "_from",
          "type": "address"
        },
        {
          "internalType": "address",
          "name": "_to",
          "type": "address"
        },
        {
          "internalType": "uint256",
          "name": "_tokenId",
          "type": "uint256"
        }
      ],
      "name": "transferFrom",
      "outputs": [],
      "stateMutability": "nonpayable",
      "type": "function"
    }
  ],
  "bytecode": "0x6080604052600060065534801561001557600080fd5b506000339050806000806101000a81548173ffffffffffffffffffffffffffffffffffffffff021916908373ffffffffffffffffffffffffffffffffffffffff1602179055508073ffffffffffffffffffffffffffffffffffffffff16600073ffffffffffffffffffffffffffffffffffffffff167f8be0079c531659141344cd1fd0a4f28419497f9722a3daafe3b4186f6b6457e060405160405180910390a350612c95806100c66000396000f3fe608060405234801561001057600080fd5b506004361061014d5760003560e01c806370a08231116100c3578063b88d4fde1161007c578063b88d4fde1461039e578063d5a776ca146103ba578063e985e9c5146103ea578063e98b7f4d1461041a578063f2fde38b1461044e578063fb2f26d61461046a5761014d565b806370a08231146102f0578063715018a6146103205780638da5cb5b1461032a57806395d89b4114610348578063a22cb46514610366578063a9059cbb146103825761014d565b806318160ddd1161011557806318160ddd1461021c57806323b872dd1461023a57806324ab5e081461025657806342842e0e146102865780634dec9b57146102a25780636352211e146102c05761014d565b806301ffc9a71461015257806306fdde0314610182578063081812fc146101a0578063095ea7b3146101d0578063150b7a02146101ec575b600080fd5b61016c60048036038101906101679190611ce3565b610488565b6040516101799190611d2b565b60405180910390f35b61018a6104ea565b6040516101979190611dd6565b60405180910390f35b6101ba60048036038101906101b59190611e2e565b610527565b6040516101c79190611e9c565b60405180910390f35b6101ea60048036038101906101e59190611ee3565b6105ab565b005b61020660048036038101906102019190611f88565b61073f565b604051610213919061201f565b60405180910390f35b61022461076d565b6040516102319190612049565b60405180910390f35b610254600480360381019061024f9190612064565b61077a565b005b610270600480360381019061026b91906120f3565b61078a565b60405161027d9190612142565b60405180910390f35b6102a0600480360381019061029b9190612064565b610806565b005b6102aa610962565b6040516102b79190612049565b60405180910390f35b6102da60048036038101906102d59190611e2e565b61096c565b6040516102e79190611e9c565b60405180910390f35b61030a6004803603810190610305919061215d565b610a18565b6040516103179190612049565b60405180910390f35b610328610a61565b005b610332610b94565b60405161033f9190611e9c565b60405180910390f35b610350610bbd565b60405161035d9190611dd6565b60405180910390f35b610380600480360381019061037b91906121b6565b610bfa565b005b61039c60048036038101906103979190611ee3565b610cf7565b005b6103b860048036038101906103b39190611f88565b611041565b005b6103d460048036038101906103cf9190611e2e565b6111a3565b6040516103e19190612142565b60405180910390f35b61040460048036038101906103ff91906121f6565b611230565b6040516104119190611d2b565b60405180910390f35b610434600480360381019061042f9190611e2e565b6112c4565b604051610445959493929190612253565b60405180910390f35b6104686004803603810190610463919061215d565b6113b2565b005b610472611553565b60405161047f9190612049565b60405180910390f35b60006380ac58cd60e01b827bffffffffffffffffffffffffffffffffffffffffffffffffffffffff191614806104e357506301ffc9a760e01b827bffffffffffffffffffffffffffffffffffffffffffffffffffffffff1916145b9050919050565b60606040518060400160405280600b81526020017f5363617265644b69747479000000000000000000000000000000000000000000815250905090565b60006001805490508210610570576040517f08c379a0000000000000000000000000000000000000000000000000000000008152600401610567906122f2565b60405180910390fd5b6004600083815260200190815260200160002060009054906101000a900473ffffffffffffffffffffffffffffffffffffffff169050919050565b60018054905081106105f2576040517f08c379a00000000000000000000000000000000000000000000000000000000081526004016105e99061235e565b60405180910390fd5b60006003600083815260200190815260200160002060009054906101000a900473ffffffffffffffffffffffffffffffffffffffff1690503373ffffffffffffffffffffffffffffffffffffffff168173ffffffffffffffffffffffffffffffffffffffff1614806106f1575060011515600560008373ffffffffffffffffffffffffffffffffffffffff1673ffffffffffffffffffffffffffffffffffffffff16815260200190815260200160002060003373ffffffffffffffffffffffffffffffffffffffff1673ffffffffffffffffffffffffffffffffffffffff16815260200190815260200160002060009054906101000a900460ff161515145b610730576040517f08c379a000000000000000000000000000000000000000000000000000000000815260040161072790612416565b60405180910390fd5b61073a838361159e565b505050565b60007f150b7a023d4804d13e8c85fb27262cb750cf6ba9f9dd3bb30d90f482ceeb4b1f905095945050505050565b6000600180549050905090565b6107858383836115f4565b505050565b60008060018463ffffffff16815481106107a7576107a6612436565b5b90600052602060002090600202019050600060018463ffffffff16815481106107d3576107d2612436565b5b9060005260206000209060020201905060006107f7836000015483600001546118d6565b90506000935050505092915050565b60008273ffffffffffffffffffffffffffffffffffffffff163b11156109525760008273ffffffffffffffffffffffffffffffffffffffff1663150b7a023386856040518463ffffffff1660e01b81526004016108659392919061249c565b6020604051808303816000875af1158015610884573d6000803e3d6000fd5b505050506040513d601f19601f820116820180604052508101906108a891906124fb565b905060007f150b7a023d4804d13e8c85fb27262cb750cf6ba9f9dd3bb30d90f482ceeb4b1f9050807bffffffffffffffffffffffffffffffffffffffffffffffffffffffff1916827bffffffffffffffffffffffffffffffffffffffffffffffffffffffff19161461094f576040517f08c379a00000000000000000000000000000000000000000000000000000000081526004016109469061259a565b60405180910390fd5b50505b61095d8383836115f4565b505050565b6000600654905090565b60006003600083815260200190815260200160002060009054906101000a900473ffffffffffffffffffffffffffffffffffffffff169050600073ffffffffffffffffffffffffffffffffffffffff168173ffffffffffffffffffffffffffffffffffffffff1603610a13576040517f08c379a0000000000000000000000000000000000000000000000000000000008152600401610a0a9061235e565b60405180910390fd5b919050565b6000600260008373ffffffffffffffffffffffffffffffffffffffff1673ffffffffffffffffffffffffffffffffffffffff168152602001908152602001600020549050919050565b3373ffffffffffffffffffffffffffffffffffffffff16610a80610b94565b73ffffffffffffffffffffffffffffffffffffffff1614610ad6576040517f08c379a0000000000000000000000000000000000000000000000000000000008152600401610acd90612606565b60405180910390fd5b600073ffffffffffffffffffffffffffffffffffffffff1660008054906101000a900473ffffffffffffffffffffffffffffffffffffffff1673ffffffffffffffffffffffffffffffffffffffff167f8be0079c531659141344cd1fd0a4f28419497f9722a3daafe3b4186f6b6457e060405160405180910390a360008060006101000a81548173ffffffffffffffffffffffffffffffffffffffff021916908373ffffffffffffffffffffffffffffffffffffffff160217905550565b60008060009054906101000a900473ffffffffffffffffffffffffffffffffffffffff16905090565b60606040518060400160405280600781526020017f534341524b495400000000000000000000000000000000000000000000000000815250905090565b80600560003373ffffffffffffffffffffffffffffffffffffffff1673ffffffffffffffffffffffffffffffffffffffff16815260200190815260200160002060008473ffffffffffffffffffffffffffffffffffffffff1673ffffffffffffffffffffffffffffffffffffffff16815260200190815260200160002060006101000a81548160ff0219169083151502179055508173ffffffffffffffffffffffffffffffffffffffff163373ffffffffffffffffffffffffffffffffffffffff167f17307eab39ab6107e8899845ad3d59bd9653f200f220920489ca2b5937696c3183604051610ceb9190611d2b565b60405180910390a35050565b600073ffffffffffffffffffffffffffffffffffffffff168273ffffffffffffffffffffffffffffffffffffffff1603610d66576040517f08c379a0000000000000000000000000000000000000000000000000000000008152600401610d5d90612672565b60405180910390fd5b3073ffffffffffffffffffffffffffffffffffffffff168273ffffffffffffffffffffffffffffffffffffffff1603610dd4576040517f08c379a0000000000000000000000000000000000000000000000000000000008152600401610dcb90612704565b60405180910390fd5b6001805490508110610e1b576040517f08c379a0000000000000000000000000000000000000000000000000000000008152600401610e12906122f2565b60405180910390fd5b60006003600083815260200190815260200160002060009054906101000a900473ffffffffffffffffffffffffffffffffffffffff169050600073ffffffffffffffffffffffffffffffffffffffff168173ffffffffffffffffffffffffffffffffffffffff1603610ec2576040517f08c379a0000000000000000000000000000000000000000000000000000000008152600401610eb99061235e565b60405180910390fd5b8073ffffffffffffffffffffffffffffffffffffffff163373ffffffffffffffffffffffffffffffffffffffff161480610f5a57503373ffffffffffffffffffffffffffffffffffffffff166004600084815260200190815260200160002060009054906101000a900473ffffffffffffffffffffffffffffffffffffffff1673ffffffffffffffffffffffffffffffffffffffff16145b80610ff2575060011515600560008373ffffffffffffffffffffffffffffffffffffffff1673ffffffffffffffffffffffffffffffffffffffff16815260200190815260200160002060003373ffffffffffffffffffffffffffffffffffffffff1673ffffffffffffffffffffffffffffffffffffffff16815260200190815260200160002060009054906101000a900460ff161515145b611031576040517f08c379a000000000000000000000000000000000000000000000000000000000815260040161102890612796565b60405180910390fd5b61103c8184846118de565b505050565b60008473ffffffffffffffffffffffffffffffffffffffff163b11156111915760008473ffffffffffffffffffffffffffffffffffffffff1663150b7a0233888787876040518663ffffffff1660e01b81526004016110a49594939291906127f2565b6020604051808303816000875af11580156110c3573d6000803e3d6000fd5b505050506040513d601f19601f820116820180604052508101906110e791906124fb565b905060007f150b7a023d4804d13e8c85fb27262cb750cf6ba9f9dd3bb30d90f482ceeb4b1f9050807bffffffffffffffffffffffffffffffffffffffffffffffffffffffff1916827bffffffffffffffffffffffffffffffffffffffffffffffffffffffff19161461118e576040517f08c379a00000000000000000000000000000000000000000000000000000000081526004016111859061259a565b60405180910390fd5b50505b61119c8585856115f4565b5050505050565b60003373ffffffffffffffffffffffffffffffffffffffff166111c4610b94565b73ffffffffffffffffffffffffffffffffffffffff161461121a576040517f08c379a000000000000000000000000000000000000000000000000000000000815260040161121190612606565b60405180910390fd5b61122960008060008533611af5565b9050919050565b6000600560008473ffffffffffffffffffffffffffffffffffffffff1673ffffffffffffffffffffffffffffffffffffffff16815260200190815260200160002060008373ffffffffffffffffffffffffffffffffffffffff1673ffffffffffffffffffffffffffffffffffffffff16815260200190815260200160002060009054906101000a900460ff16905092915050565b60008060008060006001805490508610611313576040517f08c379a000000000000000000000000000000000000000000000000000000000815260040161130a9061288c565b60405180910390fd5b60006001878154811061132957611328612436565b5b90600052602060002090600202019050806000015495508060010160009054906101000a900467ffffffffffffffff1667ffffffffffffffff1694508060010160089054906101000a900463ffffffff16935080600101600c9054906101000a900463ffffffff1692508060010160109054906101000a900461ffff1691505091939590929450565b3373ffffffffffffffffffffffffffffffffffffffff166113d1610b94565b73ffffffffffffffffffffffffffffffffffffffff1614611427576040517f08c379a000000000000000000000000000000000000000000000000000000000815260040161141e90612606565b60405180910390fd5b600073ffffffffffffffffffffffffffffffffffffffff168173ffffffffffffffffffffffffffffffffffffffff1603611496576040517f08c379a000000000000000000000000000000000000000000000000000000000815260040161148d9061291e565b60405180910390fd5b8073ffffffffffffffffffffffffffffffffffffffff1660008054906101000a900473ffffffffffffffffffffffffffffffffffffffff1673ffffffffffffffffffffffffffffffffffffffff167f8be0079c531659141344cd1fd0a4f28419497f9722a3daafe3b4186f6b6457e060405160405180910390a3806000806101000a81548173ffffffffffffffffffffffffffffffffffffffff021916908373ffffffffffffffffffffffffffffffffffffffff16021790555050565b600060016006819055507fa0932dc02325214d5866ccfb455d151bda9f0e9b76814823f6e91ea9a6879e2560065460405161158e9190612049565b60405180910390a1600654905090565b816004600083815260200190815260200160002060006101000a81548173ffffffffffffffffffffffffffffffffffffffff021916908373ffffffffffffffffffffffffffffffffffffffff1602179055505050565b600073ffffffffffffffffffffffffffffffffffffffff168273ffffffffffffffffffffffffffffffffffffffff1603611663576040517f08c379a000000000000000000000000000000000000000000000000000000000815260040161165a9061298a565b60405180910390fd5b60018054905081106116aa576040517f08c379a00000000000000000000000000000000000000000000000000000000081526004016116a1906122f2565b60405180910390fd5b60006003600083815260200190815260200160002060009054906101000a900473ffffffffffffffffffffffffffffffffffffffff1690508073ffffffffffffffffffffffffffffffffffffffff168473ffffffffffffffffffffffffffffffffffffffff1614611750576040517f08c379a0000000000000000000000000000000000000000000000000000000008152600401611747906129f6565b60405180910390fd5b60006004600084815260200190815260200160002060009054906101000a900473ffffffffffffffffffffffffffffffffffffffff1690503373ffffffffffffffffffffffffffffffffffffffff168273ffffffffffffffffffffffffffffffffffffffff16148061184f575060011515600560008473ffffffffffffffffffffffffffffffffffffffff1673ffffffffffffffffffffffffffffffffffffffff16815260200190815260200160002060003373ffffffffffffffffffffffffffffffffffffffff1673ffffffffffffffffffffffffffffffffffffffff16815260200190815260200160002060009054906101000a900460ff161515145b8061188557503373ffffffffffffffffffffffffffffffffffffffff168173ffffffffffffffffffffffffffffffffffffffff16145b6118c4576040517f08c379a00000000000000000000000000000000000000000000000000000000081526004016118bb90612aae565b60405180910390fd5b6118cf8585856118de565b5050505050565b600092915050565b600073ffffffffffffffffffffffffffffffffffffffff168373ffffffffffffffffffffffffffffffffffffffff16146119b8576000600260008573ffffffffffffffffffffffffffffffffffffffff1673ffffffffffffffffffffffffffffffffffffffff168152602001908152602001600020541161196257611961612ace565b5b600260008473ffffffffffffffffffffffffffffffffffffffff1673ffffffffffffffffffffffffffffffffffffffff16815260200190815260200160002060008154809291906119b290612b2c565b91905055505b816003600083815260200190815260200160002060006101000a81548173ffffffffffffffffffffffffffffffffffffffff021916908373ffffffffffffffffffffffffffffffffffffffff160217905550600260008373ffffffffffffffffffffffffffffffffffffffff1673ffffffffffffffffffffffffffffffffffffffff1681526020019081526020016000206000815480929190611a5a90612b55565b91905055506004600082815260200190815260200160002060006101000a81549073ffffffffffffffffffffffffffffffffffffffff0219169055808273ffffffffffffffffffffffffffffffffffffffff168473ffffffffffffffffffffffffffffffffffffffff167fddf252ad1be2c89b69c2b068fc378daa952ba7f163c4a11628f55a4df523b3ef60405160405180910390a4505050565b6000806040518060a001604052808581526020014267ffffffffffffffff1681526020018863ffffffff1681526020018763ffffffff1681526020018661ffff16815250905060018190806001815401808255809150506001900390600052602060002090600202016000909190919091506000820151816000015560208201518160010160006101000a81548167ffffffffffffffff021916908367ffffffffffffffff16021790555060408201518160010160086101000a81548163ffffffff021916908363ffffffff160217905550606082015181600101600c6101000a81548163ffffffff021916908363ffffffff16021790555060808201518160010160106101000a81548161ffff021916908361ffff160217905550505060018080549050611c249190612b9d565b9150611c386000848463ffffffff166118de565b7fc1ea72b53c1f5c7777dc94a0f85ac93e5011bc83100167e5a57960135334534f8383888a88604051611c6f959493929190612c0c565b60405180910390a15095945050505050565b600080fd5b600080fd5b60007fffffffff0000000000000000000000000000000000000000000000000000000082169050919050565b611cc081611c8b565b8114611ccb57600080fd5b50565b600081359050611cdd81611cb7565b92915050565b600060208284031215611cf957611cf8611c81565b5b6000611d0784828501611cce565b91505092915050565b60008115159050919050565b611d2581611d10565b82525050565b6000602082019050611d406000830184611d1c565b92915050565b600081519050919050565b600082825260208201905092915050565b60005b83811015611d80578082015181840152602081019050611d65565b60008484015250505050565b6000601f19601f8301169050919050565b6000611da882611d46565b611db28185611d51565b9350611dc2818560208601611d62565b611dcb81611d8c565b840191505092915050565b60006020820190508181036000830152611df08184611d9d565b905092915050565b6000819050919050565b611e0b81611df8565b8114611e1657600080fd5b50565b600081359050611e2881611e02565b92915050565b600060208284031215611e4457611e43611c81565b5b6000611e5284828501611e19565b91505092915050565b600073ffffffffffffffffffffffffffffffffffffffff82169050919050565b6000611e8682611e5b565b9050919050565b611e9681611e7b565b82525050565b6000602082019050611eb16000830184611e8d565b92915050565b611ec081611e7b565b8114611ecb57600080fd5b50565b600081359050611edd81611eb7565b92915050565b60008060408385031215611efa57611ef9611c81565b5b6000611f0885828601611ece565b9250506020611f1985828601611e19565b9150509250929050565b600080fd5b600080fd5b600080fd5b60008083601f840112611f4857611f47611f23565b5b8235905067ffffffffffffffff811115611f6557611f64611f28565b5b602083019150836001820283011115611f8157611f80611f2d565b5b9250929050565b600080600080600060808688031215611fa457611fa3611c81565b5b6000611fb288828901611ece565b9550506020611fc388828901611ece565b9450506040611fd488828901611e19565b935050606086013567ffffffffffffffff811115611ff557611ff4611c86565b5b61200188828901611f32565b92509250509295509295909350565b61201981611c8b565b82525050565b60006020820190506120346000830184612010565b92915050565b61204381611df8565b82525050565b600060208201905061205e600083018461203a565b92915050565b60008060006060848603121561207d5761207c611c81565b5b600061208b86828701611ece565b935050602061209c86828701611ece565b92505060406120ad86828701611e19565b9150509250925092565b600063ffffffff82169050919050565b6120d0816120b7565b81146120db57600080fd5b50565b6000813590506120ed816120c7565b92915050565b6000806040838503121561210a57612109611c81565b5b6000612118858286016120de565b9250506020612129858286016120de565b9150509250929050565b61213c816120b7565b82525050565b60006020820190506121576000830184612133565b92915050565b60006020828403121561217357612172611c81565b5b600061218184828501611ece565b91505092915050565b61219381611d10565b811461219e57600080fd5b50565b6000813590506121b08161218a565b92915050565b600080604083850312156121cd576121cc611c81565b5b60006121db85828601611ece565b92505060206121ec858286016121a1565b9150509250929050565b6000806040838503121561220d5761220c611c81565b5b600061221b85828601611ece565b925050602061222c85828601611ece565b9150509250929050565b600061ffff82169050919050565b61224d81612236565b82525050565b600060a082019050612268600083018861203a565b612275602083018761203a565b6122826040830186612133565b61228f6060830185612133565b61229c6080830184612244565b9695505050505050565b7f496e76616c696420746f6b656e20696400000000000000000000000000000000600082015250565b60006122dc601083611d51565b91506122e7826122a6565b602082019050919050565b6000602082019050818103600083015261230b816122cf565b9050919050565b7f546f6b656e20696420646f6573206e6f74206578697374000000000000000000600082015250565b6000612348601783611d51565b915061235382612312565b602082019050919050565b600060208201905081810360008301526123778161233b565b9050919050565b7f43616c6c6572206973206e6f74206f776e6572206f662074686520746f6b656e60008201527f206f7220616e20617070726f766572206f662074686520746f6b656e206f776e60208201527f6572000000000000000000000000000000000000000000000000000000000000604082015250565b6000612400604283611d51565b915061240b8261237e565b606082019050919050565b6000602082019050818103600083015261242f816123f3565b9050919050565b7f4e487b7100000000000000000000000000000000000000000000000000000000600052603260045260246000fd5b600082825260208201905092915050565b50565b6000612486600083612465565b915061249182612476565b600082019050919050565b60006080820190506124b16000830186611e8d565b6124be6020830185611e8d565b6124cb604083018461203a565b81810360608301526124dc81612479565b9050949350505050565b6000815190506124f581611cb7565b92915050565b60006020828403121561251157612510611c81565b5b600061251f848285016124e6565b91505092915050565b7f5f746f206164647265737320646f6573206e6f7420737570706f72742045524360008201527f37323120636f6e74726163740000000000000000000000000000000000000000602082015250565b6000612584602c83611d51565b915061258f82612528565b604082019050919050565b600060208201905081810360008301526125b381612577565b9050919050565b7f4f776e61626c653a2063616c6c6572206973206e6f7420746865206f776e6572600082015250565b60006125f0602083611d51565b91506125fb826125ba565b602082019050919050565b6000602082019050818103600083015261261f816125e3565b9050919050565b7f696e76616c696420746f20616464726573730000000000000000000000000000600082015250565b600061265c601283611d51565b915061266782612626565b602082019050919050565b6000602082019050818103600083015261268b8161264f565b9050919050565b7f746f2063616e6e6f742062652074686520636f6e74726163742061646472657360008201527f7300000000000000000000000000000000000000000000000000000000000000602082015250565b60006126ee602183611d51565b91506126f982612692565b604082019050919050565b6000602082019050818103600083015261271d816126e1565b9050919050565b7f6f6e6c79206f776e65722f617070726f7665722063616e206d616b652061207460008201527f72616e7366657200000000000000000000000000000000000000000000000000602082015250565b6000612780602783611d51565b915061278b82612724565b604082019050919050565b600060208201905081810360008301526127af81612773565b9050919050565b82818337600083830152505050565b60006127d18385612465565b93506127de8385846127b6565b6127e783611d8c565b840190509392505050565b60006080820190506128076000830188611e8d565b6128146020830187611e8d565b612821604083018661203a565b81810360608301526128348184866127c5565b90509695505050505050565b7f496e76616c696420636174206964000000000000000000000000000000000000600082015250565b6000612876600e83611d51565b915061288182612840565b602082019050919050565b600060208201905081810360008301526128a581612869565b9050919050565b7f4f776e61626c653a206e6577206f776e657220697320746865207a65726f206160008201527f6464726573730000000000000000000000000000000000000000000000000000602082015250565b6000612908602683611d51565b9150612913826128ac565b604082019050919050565b60006020820190508181036000830152612937816128fb565b9050919050565b7f696e76616c6964205f746f206164647265737300000000000000000000000000600082015250565b6000612974601383611d51565b915061297f8261293e565b602082019050919050565b600060208201905081810360008301526129a381612967565b9050919050565b7f5f66726f6d2073686f756c642062652074686520746f6b656e206f776e657200600082015250565b60006129e0601f83611d51565b91506129eb826129aa565b602082019050919050565b60006020820190508181036000830152612a0f816129d3565b9050919050565b7f43616c6c6572206973206e6f74206f776e6572206f662074686520746f6b656e60008201527f206f7220616e206f70657261746f72206f662074686520746f6b656e206f776e60208201527f6572206f7220616e20617070726f766572206f662074686520746f6b656e0000604082015250565b6000612a98605e83611d51565b9150612aa382612a16565b606082019050919050565b60006020820190508181036000830152612ac781612a8b565b9050919050565b7f4e487b7100000000000000000000000000000000000000000000000000000000600052600160045260246000fd5b7f4e487b7100000000000000000000000000000000000000000000000000000000600052601160045260246000fd5b6000612b3782611df8565b915060008203612b4a57612b49612afd565b5b600182039050919050565b6000612b6082611df8565b91507fffffffffffffffffffffffffffffffffffffffffffffffffffffffffffffffff8203612b9257612b91612afd565b5b600182019050919050565b6000612ba882611df8565b9150612bb383611df8565b9250828203905081811115612bcb57612bca612afd565b5b92915050565b6000819050919050565b6000612bf6612bf1612bec846120b7565b612bd1565b611df8565b9050919050565b612c0681612bdb565b82525050565b600060a082019050612c216000830188611e8d565b612c2e6020830187612bfd565b612c3b6040830186612133565b612c486060830185612133565b612c55608083018461203a565b969550505050505056fea2646970667358221220ade3d5cedb5878d07a8fca4aa09e3bf196a85fbd53b7081b54c9fbd9903e249464736f6c63430008110033",
  "immutableReferences": {},
  "source": "// SPDX-License-Identifier: MIT\n\npragma solidity ^0.8.0;\n\nimport \"./IERC721.sol\";\nimport \"./Ownable.sol\";\nimport \"./IERC165.sol\";\n\ninterface ISupportsERC721{\n    function onERC721Received(address,address,uint256,bytes calldata) external returns (bytes4);\n}\n\ncontract Kittycontract is IERC721, Ownable, ISupportsERC721, IERC165 {\n    struct Kitty {\n        uint256 genes;\n        uint64 birthTime;\n        uint32 mumId;\n        uint32 dadId;\n        uint16 generation;\n    }\n\n    event Birth(\n        address owner,\n        uint256 tokenId,\n        uint32 dadId,\n        uint32 mumId,\n        uint256 genes\n    );\n\n    Kitty[] kitties;\n\n    //Associates an EOA with its balance\n    mapping(address => uint256) private balances;\n\n    //Associates a token id with its owner\n    mapping(uint256 => address) private tokenowners;\n\n    //Approvers of a token id\n    mapping(uint256 => address) private tokenApprovers;\n    mapping(address => mapping(address => bool)) private ownerApprovers;\n\n    function balanceOf(address owner) external view returns (uint256 balance) {\n        return balances[owner];\n    }\n\n    function totalSupply() external view returns (uint256 total) {\n        return kitties.length;\n    }\n\n    function name() external pure returns (string memory tokenName) {\n        return \"ScaredKitty\";\n    }\n\n    function symbol() external pure returns (string memory tokenSymbol) {\n        return \"SCARKIT\";\n    }\n\n    // Reverts if a token id does not exists?\n    function ownerOf(uint256 tokenid) external view returns (address owner) {\n        owner = tokenowners[tokenid];\n\n        require(owner != address(0), \"Token id does not exist\");\n    }\n\n    event DeleteMe(\n        uint num\n        );\n\n    uint256 private _deleteMe = 0;\n\n    function testView() external view returns (uint256 num){\n        return _deleteMe;\n    }\n\n    function testWrite() external returns (uint256 num){\n        _deleteMe = 1;\n        emit DeleteMe(_deleteMe);\n        return _deleteMe;\n    }\n\n\n    function transfer(address to, uint256 tokenId) external {\n        require(to != address(0), \"invalid to address\");\n        require(to != address(this), \"to cannot be the contract address\");\n        require(tokenId < kitties.length, \"Invalid token id\");\n\n        address owner = tokenowners[tokenId];\n\n        require(owner != address(0), \"Token id does not exist\");\n        require(msg.sender == owner || tokenApprovers[tokenId] == msg.sender || ownerApprovers[owner][msg.sender] == true, \"only owner/approver can make a transfer\");\n\n        _transfer(owner, to, tokenId);\n    }\n\n    function _transfer(\n        address _from,\n        address _to,\n        uint256 _tokenId\n    ) internal {\n        if (_from != address(0)) {\n            assert(balances[_from] > 0);\n\n            balances[_from]--;\n        }\n\n        tokenowners[_tokenId] = _to;\n        balances[_to]++;\n        // Account approved on this token should be revoked\n        delete tokenApprovers[_tokenId];\n\n        emit Transfer(_from, _to, _tokenId);\n    }\n\n    function createKittyGen0(uint256 _genes) public onlyOwner returns (uint32 catId){\n        catId = _createKitty(0, 0, 0, _genes, msg.sender);\n    }\n\n\n    function breed(uint32 _mumId, uint32 _dadId) external returns (uint32 childId){\n        // Check ownership\n        \n        // Calculate the new dna\n        Kitty storage mum = kitties[_mumId];\n        Kitty storage dad = kitties[_dadId];\n\n        uint256 newGenes = _mixGenes(mum.genes, dad.genes);\n\n        // mint the new kitty\n        // childId = _createKitty(_mumId, _dadId, mum.generation+1, newGenes, msg.sender);\n        childId = 0;\n\n    }\n\n    function getKitty(uint256 _id)\n        public\n        view\n        returns (\n            uint256 genes,\n            uint256 birthTime,\n            uint32 mumId,\n            uint32 dadId,\n            uint16 generation\n        )\n    {\n        require(_id < kitties.length, \"Invalid cat id\");\n\n        Kitty storage kitty = kitties[_id];\n\n        genes = kitty.genes;\n        birthTime = kitty.birthTime;\n        mumId = kitty.mumId;\n        dadId = kitty.dadId;\n        generation = kitty.generation;\n    }\n\n    function _createKitty(\n        uint32 _mumId,\n        uint32 _dadId,\n        uint16 _generation,\n        uint256 _genes,\n        address _owner\n    ) internal returns (uint32 newKittyTokenId) {\n        Kitty memory _kitty = Kitty({\n            genes: _genes,\n            birthTime: uint64(block.timestamp),\n            mumId: _mumId,\n            dadId: _dadId,\n            generation: _generation\n        });\n\n        kitties.push(_kitty);\n        newKittyTokenId = uint32(kitties.length - 1);\n\n        _transfer(address(0), _owner, newKittyTokenId);\n\n        emit Birth(_owner, newKittyTokenId, _dadId, _mumId, _genes);\n    }\n\n\n    function _mixGenes(uint256 mumDna, uint256 dadDna) private returns (uint256 childDna){\n        childDna = 0;\n    }\n\n    function approve(address _approved, uint256 _tokenId) external{\n\n        require(_tokenId < kitties.length, \"Token id does not exist\");\n\n        //msg.sender must be the owner or an existing operator of tokenId\n        address tokenOwner = tokenowners[_tokenId];\n\n        require( (tokenOwner == msg.sender || ownerApprovers[tokenOwner][msg.sender] == true) , 'Caller is not owner of the token or an approver of the token owner'); \n\n        _approve(_approved, _tokenId);        \n\n    }\n\n    /// @notice Change or reaffirm the approved address for an NFT\n    /// @dev The zero address indicates there is no approved address.\n    ///  Throws unless `msg.sender` is the current NFT owner, or an authorized\n    ///  operator of the current owner.\n    /// @param _approved The new approved NFT controller\n    /// @param _tokenId The NFT to approve\n    function _approve(address _approved, uint256 _tokenId) private{\n\n        tokenApprovers[_tokenId] = _approved;     \n    }\n\n    /// @notice Enable or disable approval for a third party (\"operator\") to manage\n    ///  all of `msg.sender`'s assets\n    /// @dev Emits the ApprovalForAll event. The contract MUST allow\n    ///  multiple operators per owner.\n    /// @param _operator Address to add to the set of authorized operators\n    /// @param _approved True if the operator is approved, false to revoke approval\n    function setApprovalForAll(address _operator, bool _approved) external{\n        \n        ownerApprovers[msg.sender][_operator] = _approved;\n\n        emit ApprovalForAll(msg.sender, _operator, _approved);\n    }\n\n    /// @notice Get the approved address for a single NFT\n    /// @dev Throws if `_tokenId` is not a valid NFT.\n    /// @param _tokenId The NFT to find the approved address for\n    /// @return The approved address for this NFT, or the zero address if there is none\n    function getApproved(uint256 _tokenId) external view returns (address){\n        require(_tokenId < kitties.length, \"Invalid token id\");\n\n        return tokenApprovers[_tokenId];\n\n    }\n\n    /// @notice Query if an address is an authorized operator for another address\n    /// @param _owner The address that owns the NFTs\n    /// @param _operator The address that acts on behalf of the owner\n    /// @return True if `_operator` is an approved operator for `_owner`, false otherwise\n    function isApprovedForAll(address _owner, address _operator) external view returns (bool){\n        return ownerApprovers[_owner][_operator];\n    }\n\n\n    function onERC721Received(address,address,uint256,bytes calldata) external pure returns (bytes4){\n        return bytes4(keccak256(\"onERC721Received(address,address,uint256,bytes)\"));\n    }\n\n    // Implement IERC165\n    function supportsInterface(bytes4 interfaceID) external pure returns (bool){\n        return (interfaceID == 0x80ac58cd || interfaceID == 0x01ffc9a7);\n    }\n\n\n    /// @notice Transfers the ownership of an NFT from one address to another address\n    /// @dev Throws unless `msg.sender` is the current owner, an authorized\n    ///  operator, or the approved address for this NFT. Throws if `_from` is\n    ///  not the current owner. Throws if `_to` is the zero address. Throws if\n    ///  `_tokenId` is not a valid NFT. When transfer is complete, this function\n    ///  checks if `_to` is a smart contract (code size > 0). If so, it calls\n    ///  `onERC721Received` on `_to` and throws if the return value is not\n    ///  `bytes4(keccak256(\"onERC721Received(address,address,uint256,bytes)\"))`.\n    /// @param _from The current owner of the NFT\n    /// @param _to The new owner\n    /// @param _tokenId The NFT to transfer\n    /// @param data Additional data with no specified format, sent in call to `_to`\n    function safeTransferFrom(address _from, address _to, uint256 _tokenId, bytes calldata data) external{\n\n        if (_to.code.length > 0 ){\n\n            bytes4 result = ISupportsERC721(_to).onERC721Received(msg.sender, _from, _tokenId, data);\n\n            bytes4 expectedResult = bytes4(keccak256(\"onERC721Received(address,address,uint256,bytes)\"));\n\n            require(result == expectedResult, \"_to address does not support ERC721 contract\");\n        }        \n\n        _transferFrom(_from, _to, _tokenId);\n\n    }\n\n    /// @notice Transfers the ownership of an NFT from one address to another address\n    /// @dev This works identically to the other function with an extra data parameter,\n    ///  except this function just sets data to \"\".\n    /// @param _from The current owner of the NFT\n    /// @param _to The new owner\n    /// @param _tokenId The NFT to transfer\n    function safeTransferFrom(address _from, address _to, uint256 _tokenId) external{\n\n        if (_to.code.length > 0 ){\n\n            bytes4 result = ISupportsERC721(_to).onERC721Received(msg.sender, _from, _tokenId, \"\");\n\n            bytes4 expectedResult = bytes4(keccak256(\"onERC721Received(address,address,uint256,bytes)\"));\n\n            require(result == expectedResult, \"_to address does not support ERC721 contract\");\n        }\n\n        _transferFrom(_from, _to, _tokenId);\n\n    }\n\n\n    /// @notice Transfer ownership of an NFT -- THE CALLER IS RESPONSIBLE\n    ///  TO CONFIRM THAT `_to` IS CAPABLE OF RECEIVING NFTS OR ELSE\n    ///  THEY MAY BE PERMANENTLY LOST\n    /// @dev Throws unless `msg.sender` is the current owner, an authorized\n    ///  operator, or the approved address for this NFT. Throws if `_from` is\n    ///  not the current owner. Throws if `_to` is the zero address. Throws if\n    ///  `_tokenId` is not a valid NFT.\n    /// @param _from The current owner of the NFT\n    /// @param _to The new owner\n    /// @param _tokenId The NFT to transfer\n    function transferFrom(address _from, address _to, uint256 _tokenId) external{\n\n\n        _transferFrom(_from, _to, _tokenId);\n    }    \n\n    function _transferFrom(address _from, address _to, uint256 _tokenId) private{\n        //msg.sender must be the owner or an existing operator of tokenId\n        require(_to != address(0), \"invalid _to address\");\n        require(_tokenId < kitties.length, \"Invalid token id\");\n\n        address tokenOwner = tokenowners[_tokenId];\n        require(_from == tokenOwner, \"_from should be the token owner\");\n\n        address approver = tokenApprovers[_tokenId];    \n        require( (tokenOwner == msg.sender \n        || ownerApprovers[tokenOwner][msg.sender] == true\n        || approver == msg.sender) , 'Caller is not owner of the token or an operator of the token owner or an approver of the token'); \n\n        _transfer(_from, _to, _tokenId);\n\n    }\n\n}\n",
  "sourcePath": "/media/psf/Ivan/NFT-marketplace/mygitrepo3/moralisacademy-nftmarketplace/contracts/Kittycontract.sol",
  "compiler": {
    "name": "solc",
    "version": "0.8.17+commit.8df45f5f.Emscripten.clang"
  },
  "schemaVersion": "3.4.10",
  "updatedAt": "2023-01-18T11:26:10.932Z",
  "networkType": "ethereum",
  "devdoc": {
    "kind": "dev",
    "methods": {
      "approve(address,uint256)": {
        "details": "The zero address indicates there is no approved address.  Throws unless `msg.sender` is the current NFT owner, or an authorized  operator of the current owner.",
        "params": {
          "_approved": "The new approved NFT controller",
          "_tokenId": "The NFT to approve"
        }
      },
      "balanceOf(address)": {
        "details": "Returns the number of tokens in ``owner``'s account."
      },
      "getApproved(uint256)": {
        "details": "Throws if `_tokenId` is not a valid NFT.",
        "params": {
          "_tokenId": "The NFT to find the approved address for"
        },
        "returns": {
          "_0": "The approved address for this NFT, or the zero address if there is none"
        }
      },
      "isApprovedForAll(address,address)": {
        "params": {
          "_operator": "The address that acts on behalf of the owner",
          "_owner": "The address that owns the NFTs"
        },
        "returns": {
          "_0": "True if `_operator` is an approved operator for `_owner`, false otherwise"
        }
      },
      "owner()": {
        "details": "Returns the address of the current owner."
      },
      "renounceOwnership()": {
        "details": "Leaves the contract without owner. It will not be possible to call `onlyOwner` functions anymore. Can only be called by the current owner. NOTE: Renouncing ownership will leave the contract without an owner, thereby removing any functionality that is only available to the owner."
      },
      "safeTransferFrom(address,address,uint256)": {
        "details": "This works identically to the other function with an extra data parameter,  except this function just sets data to \"\".",
        "params": {
          "_from": "The current owner of the NFT",
          "_to": "The new owner",
          "_tokenId": "The NFT to transfer"
        }
      },
      "safeTransferFrom(address,address,uint256,bytes)": {
        "details": "Throws unless `msg.sender` is the current owner, an authorized  operator, or the approved address for this NFT. Throws if `_from` is  not the current owner. Throws if `_to` is the zero address. Throws if  `_tokenId` is not a valid NFT. When transfer is complete, this function  checks if `_to` is a smart contract (code size > 0). If so, it calls  `onERC721Received` on `_to` and throws if the return value is not  `bytes4(keccak256(\"onERC721Received(address,address,uint256,bytes)\"))`.",
        "params": {
          "_from": "The current owner of the NFT",
          "_to": "The new owner",
          "_tokenId": "The NFT to transfer",
          "data": "Additional data with no specified format, sent in call to `_to`"
        }
      },
      "setApprovalForAll(address,bool)": {
        "details": "Emits the ApprovalForAll event. The contract MUST allow  multiple operators per owner.",
        "params": {
          "_approved": "True if the operator is approved, false to revoke approval",
          "_operator": "Address to add to the set of authorized operators"
        }
      },
      "transferFrom(address,address,uint256)": {
        "details": "Throws unless `msg.sender` is the current owner, an authorized  operator, or the approved address for this NFT. Throws if `_from` is  not the current owner. Throws if `_to` is the zero address. Throws if  `_tokenId` is not a valid NFT.",
        "params": {
          "_from": "The current owner of the NFT",
          "_to": "The new owner",
          "_tokenId": "The NFT to transfer"
        }
      },
      "transferOwnership(address)": {
        "details": "Transfers ownership of the contract to a new account (`newOwner`). Can only be called by the current owner."
      }
    },
    "version": 1
  },
  "userdoc": {
    "kind": "user",
    "methods": {
      "approve(address,uint256)": {
        "notice": "Change or reaffirm the approved address for an NFT"
      },
      "getApproved(uint256)": {
        "notice": "Get the approved address for a single NFT"
      },
      "isApprovedForAll(address,address)": {
        "notice": "Query if an address is an authorized operator for another address"
      },
      "safeTransferFrom(address,address,uint256)": {
        "notice": "Transfers the ownership of an NFT from one address to another address"
      },
      "safeTransferFrom(address,address,uint256,bytes)": {
        "notice": "Transfers the ownership of an NFT from one address to another address"
      },
      "setApprovalForAll(address,bool)": {
        "notice": "Enable or disable approval for a third party (\"operator\") to manage  all of `msg.sender`'s assets"
      },
      "transferFrom(address,address,uint256)": {
        "notice": "Transfer ownership of an NFT -- THE CALLER IS RESPONSIBLE  TO CONFIRM THAT `_to` IS CAPABLE OF RECEIVING NFTS OR ELSE  THEY MAY BE PERMANENTLY LOST"
      }
    },
    "version": 1
  }
}