{
  "contractName": "Kittycontract",
  "abi": [
    {
      "anonymous": false,
      "inputs": [
        {
          "indexed": true,
          "internalType": "address",
          "name": "owner",
          "type": "address"
        },
        {
          "indexed": true,
          "internalType": "address",
          "name": "approved",
          "type": "address"
        },
        {
          "indexed": true,
          "internalType": "uint256",
          "name": "tokenId",
          "type": "uint256"
        }
      ],
      "name": "Approval",
      "type": "event"
    },
    {
      "anonymous": false,
      "inputs": [
        {
          "indexed": true,
          "internalType": "address",
          "name": "owner",
          "type": "address"
        },
        {
          "indexed": true,
          "internalType": "address",
          "name": "operator",
          "type": "address"
        },
        {
          "indexed": false,
          "internalType": "bool",
          "name": "approved",
          "type": "bool"
        }
      ],
      "name": "ApprovalForAll",
      "type": "event"
    },
    {
      "anonymous": false,
      "inputs": [
        {
          "indexed": false,
          "internalType": "address",
          "name": "owner",
          "type": "address"
        },
        {
          "indexed": false,
          "internalType": "uint256",
          "name": "tokenId",
          "type": "uint256"
        },
        {
          "indexed": false,
          "internalType": "uint32",
          "name": "dadId",
          "type": "uint32"
        },
        {
          "indexed": false,
          "internalType": "uint32",
          "name": "mumId",
          "type": "uint32"
        },
        {
          "indexed": false,
          "internalType": "uint256",
          "name": "genes",
          "type": "uint256"
        }
      ],
      "name": "Birth",
      "type": "event"
    },
    {
      "anonymous": false,
      "inputs": [
        {
          "indexed": true,
          "internalType": "address",
          "name": "previousOwner",
          "type": "address"
        },
        {
          "indexed": true,
          "internalType": "address",
          "name": "newOwner",
          "type": "address"
        }
      ],
      "name": "OwnershipTransferred",
      "type": "event"
    },
    {
      "anonymous": false,
      "inputs": [
        {
          "indexed": true,
          "internalType": "address",
          "name": "from",
          "type": "address"
        },
        {
          "indexed": true,
          "internalType": "address",
          "name": "to",
          "type": "address"
        },
        {
          "indexed": true,
          "internalType": "uint256",
          "name": "tokenId",
          "type": "uint256"
        }
      ],
      "name": "Transfer",
      "type": "event"
    },
    {
      "inputs": [],
      "name": "owner",
      "outputs": [
        {
          "internalType": "address",
          "name": "",
          "type": "address"
        }
      ],
      "stateMutability": "view",
      "type": "function"
    },
    {
      "inputs": [],
      "name": "renounceOwnership",
      "outputs": [],
      "stateMutability": "nonpayable",
      "type": "function"
    },
    {
      "inputs": [
        {
          "internalType": "address",
          "name": "newOwner",
          "type": "address"
        }
      ],
      "name": "transferOwnership",
      "outputs": [],
      "stateMutability": "nonpayable",
      "type": "function"
    },
    {
      "inputs": [
        {
          "internalType": "address",
          "name": "owner",
          "type": "address"
        }
      ],
      "name": "balanceOf",
      "outputs": [
        {
          "internalType": "uint256",
          "name": "balance",
          "type": "uint256"
        }
      ],
      "stateMutability": "view",
      "type": "function"
    },
    {
      "inputs": [],
      "name": "totalSupply",
      "outputs": [
        {
          "internalType": "uint256",
          "name": "total",
          "type": "uint256"
        }
      ],
      "stateMutability": "view",
      "type": "function"
    },
    {
      "inputs": [],
      "name": "name",
      "outputs": [
        {
          "internalType": "string",
          "name": "tokenName",
          "type": "string"
        }
      ],
      "stateMutability": "pure",
      "type": "function"
    },
    {
      "inputs": [],
      "name": "symbol",
      "outputs": [
        {
          "internalType": "string",
          "name": "tokenSymbol",
          "type": "string"
        }
      ],
      "stateMutability": "pure",
      "type": "function"
    },
    {
      "inputs": [
        {
          "internalType": "uint256",
          "name": "tokenid",
          "type": "uint256"
        }
      ],
      "name": "ownerOf",
      "outputs": [
        {
          "internalType": "address",
          "name": "owner",
          "type": "address"
        }
      ],
      "stateMutability": "view",
      "type": "function"
    },
    {
      "inputs": [
        {
          "internalType": "address",
          "name": "to",
          "type": "address"
        },
        {
          "internalType": "uint256",
          "name": "tokenId",
          "type": "uint256"
        }
      ],
      "name": "transfer",
      "outputs": [],
      "stateMutability": "nonpayable",
      "type": "function"
    },
    {
      "inputs": [
        {
          "internalType": "uint256",
          "name": "_genes",
          "type": "uint256"
        }
      ],
      "name": "createKittyGen0",
      "outputs": [],
      "stateMutability": "nonpayable",
      "type": "function"
    },
    {
      "inputs": [
        {
          "internalType": "uint256",
          "name": "_id",
          "type": "uint256"
        }
      ],
      "name": "getKitty",
      "outputs": [
        {
          "internalType": "uint256",
          "name": "genes",
          "type": "uint256"
        },
        {
          "internalType": "uint256",
          "name": "birthTime",
          "type": "uint256"
        },
        {
          "internalType": "uint32",
          "name": "mumId",
          "type": "uint32"
        },
        {
          "internalType": "uint32",
          "name": "dadId",
          "type": "uint32"
        },
        {
          "internalType": "uint16",
          "name": "generation",
          "type": "uint16"
        }
      ],
      "stateMutability": "view",
      "type": "function"
    },
    {
      "inputs": [
        {
          "internalType": "address",
          "name": "_approved",
          "type": "address"
        },
        {
          "internalType": "uint256",
          "name": "_tokenId",
          "type": "uint256"
        }
      ],
      "name": "approve",
      "outputs": [],
      "stateMutability": "nonpayable",
      "type": "function"
    },
    {
      "inputs": [
        {
          "internalType": "address",
          "name": "_operator",
          "type": "address"
        },
        {
          "internalType": "bool",
          "name": "_approved",
          "type": "bool"
        }
      ],
      "name": "setApprovalForAll",
      "outputs": [],
      "stateMutability": "nonpayable",
      "type": "function"
    },
    {
      "inputs": [
        {
          "internalType": "uint256",
          "name": "_tokenId",
          "type": "uint256"
        }
      ],
      "name": "getApproved",
      "outputs": [
        {
          "internalType": "address",
          "name": "",
          "type": "address"
        }
      ],
      "stateMutability": "view",
      "type": "function"
    },
    {
      "inputs": [
        {
          "internalType": "address",
          "name": "_owner",
          "type": "address"
        },
        {
          "internalType": "address",
          "name": "_operator",
          "type": "address"
        }
      ],
      "name": "isApprovedForAll",
      "outputs": [
        {
          "internalType": "bool",
          "name": "",
          "type": "bool"
        }
      ],
      "stateMutability": "view",
      "type": "function"
    },
    {
      "inputs": [
        {
          "internalType": "address",
          "name": "",
          "type": "address"
        },
        {
          "internalType": "address",
          "name": "",
          "type": "address"
        },
        {
          "internalType": "uint256",
          "name": "",
          "type": "uint256"
        },
        {
          "internalType": "bytes",
          "name": "",
          "type": "bytes"
        }
      ],
      "name": "onERC721Received",
      "outputs": [
        {
          "internalType": "bytes4",
          "name": "",
          "type": "bytes4"
        }
      ],
      "stateMutability": "pure",
      "type": "function"
    },
    {
      "inputs": [
        {
          "internalType": "address",
          "name": "_from",
          "type": "address"
        },
        {
          "internalType": "address",
          "name": "_to",
          "type": "address"
        },
        {
          "internalType": "uint256",
          "name": "_tokenId",
          "type": "uint256"
        }
      ],
      "name": "safeTransferFrom",
      "outputs": [],
      "stateMutability": "nonpayable",
      "type": "function"
    },
    {
      "inputs": [
        {
          "internalType": "address",
          "name": "_from",
          "type": "address"
        },
        {
          "internalType": "address",
          "name": "_to",
          "type": "address"
        },
        {
          "internalType": "uint256",
          "name": "_tokenId",
          "type": "uint256"
        },
        {
          "internalType": "bytes",
          "name": "data",
          "type": "bytes"
        }
      ],
      "name": "safeTransferFrom",
      "outputs": [],
      "stateMutability": "nonpayable",
      "type": "function"
    },
    {
      "inputs": [
        {
          "internalType": "address",
          "name": "_from",
          "type": "address"
        },
        {
          "internalType": "address",
          "name": "_to",
          "type": "address"
        },
        {
          "internalType": "uint256",
          "name": "_tokenId",
          "type": "uint256"
        }
      ],
      "name": "transferFrom",
      "outputs": [],
      "stateMutability": "nonpayable",
      "type": "function"
    }
  ],
  "bytecode": "0x608060405234801561001057600080fd5b506000339050806000806101000a81548173ffffffffffffffffffffffffffffffffffffffff021916908373ffffffffffffffffffffffffffffffffffffffff1602179055508073ffffffffffffffffffffffffffffffffffffffff16600073ffffffffffffffffffffffffffffffffffffffff167f8be0079c531659141344cd1fd0a4f28419497f9722a3daafe3b4186f6b6457e060405160405180910390a350612975806100c16000396000f3fe608060405234801561001057600080fd5b50600436106101215760003560e01c8063715018a6116100ad578063b88d4fde11610071578063b88d4fde146102f4578063d5a776ca14610310578063e985e9c51461032c578063e98b7f4d1461035c578063f2fde38b1461039057610121565b8063715018a6146102765780638da5cb5b1461028057806395d89b411461029e578063a22cb465146102bc578063a9059cbb146102d857610121565b806318160ddd116100f457806318160ddd146101c057806323b872dd146101de57806342842e0e146101fa5780636352211e1461021657806370a082311461024657610121565b806306fdde0314610126578063081812fc14610144578063095ea7b314610174578063150b7a0214610190575b600080fd5b61012e6103ac565b60405161013b9190611af5565b60405180910390f35b61015e60048036038101906101599190611b57565b6103e9565b60405161016b9190611bc5565b60405180910390f35b61018e60048036038101906101899190611c0c565b61046d565b005b6101aa60048036038101906101a59190611cb1565b610601565b6040516101b79190611d74565b60405180910390f35b6101c861062f565b6040516101d59190611d9e565b60405180910390f35b6101f860048036038101906101f39190611db9565b61063c565b005b610214600480360381019061020f9190611db9565b61064c565b005b610230600480360381019061022b9190611b57565b6107a8565b60405161023d9190611bc5565b60405180910390f35b610260600480360381019061025b9190611e0c565b610854565b60405161026d9190611d9e565b60405180910390f35b61027e61089d565b005b6102886109d0565b6040516102959190611bc5565b60405180910390f35b6102a66109f9565b6040516102b39190611af5565b60405180910390f35b6102d660048036038101906102d19190611e71565b610a36565b005b6102f260048036038101906102ed9190611c0c565b610b33565b005b61030e60048036038101906103099190611cb1565b610e7d565b005b61032a60048036038101906103259190611b57565b610fdf565b005b61034660048036038101906103419190611eb1565b611067565b6040516103539190611f00565b60405180910390f35b61037660048036038101906103719190611b57565b6110fb565b604051610387959493929190611f57565b60405180910390f35b6103aa60048036038101906103a59190611e0c565b6111e9565b005b60606040518060400160405280600b81526020017f5363617265644b69747479000000000000000000000000000000000000000000815250905090565b60006001805490508210610432576040517f08c379a000000000000000000000000000000000000000000000000000000000815260040161042990611ff6565b60405180910390fd5b6004600083815260200190815260200160002060009054906101000a900473ffffffffffffffffffffffffffffffffffffffff169050919050565b60018054905081106104b4576040517f08c379a00000000000000000000000000000000000000000000000000000000081526004016104ab90612062565b60405180910390fd5b60006003600083815260200190815260200160002060009054906101000a900473ffffffffffffffffffffffffffffffffffffffff1690503373ffffffffffffffffffffffffffffffffffffffff168173ffffffffffffffffffffffffffffffffffffffff1614806105b3575060011515600560008373ffffffffffffffffffffffffffffffffffffffff1673ffffffffffffffffffffffffffffffffffffffff16815260200190815260200160002060003373ffffffffffffffffffffffffffffffffffffffff1673ffffffffffffffffffffffffffffffffffffffff16815260200190815260200160002060009054906101000a900460ff161515145b6105f2576040517f08c379a00000000000000000000000000000000000000000000000000000000081526004016105e99061211a565b60405180910390fd5b6105fc838361138a565b505050565b60007f150b7a023d4804d13e8c85fb27262cb750cf6ba9f9dd3bb30d90f482ceeb4b1f905095945050505050565b6000600180549050905090565b6106478383836113e0565b505050565b60008273ffffffffffffffffffffffffffffffffffffffff163b11156107985760008273ffffffffffffffffffffffffffffffffffffffff1663150b7a028585856040518463ffffffff1660e01b81526004016106ab93929190612171565b6020604051808303816000875af11580156106ca573d6000803e3d6000fd5b505050506040513d601f19601f820116820180604052508101906106ee91906121e7565b905060007f150b7a023d4804d13e8c85fb27262cb750cf6ba9f9dd3bb30d90f482ceeb4b1f9050807bffffffffffffffffffffffffffffffffffffffffffffffffffffffff1916827bffffffffffffffffffffffffffffffffffffffffffffffffffffffff191614610795576040517f08c379a000000000000000000000000000000000000000000000000000000000815260040161078c90612286565b60405180910390fd5b50505b6107a38383836113e0565b505050565b60006003600083815260200190815260200160002060009054906101000a900473ffffffffffffffffffffffffffffffffffffffff169050600073ffffffffffffffffffffffffffffffffffffffff168173ffffffffffffffffffffffffffffffffffffffff160361084f576040517f08c379a000000000000000000000000000000000000000000000000000000000815260040161084690612062565b60405180910390fd5b919050565b6000600260008373ffffffffffffffffffffffffffffffffffffffff1673ffffffffffffffffffffffffffffffffffffffff168152602001908152602001600020549050919050565b3373ffffffffffffffffffffffffffffffffffffffff166108bc6109d0565b73ffffffffffffffffffffffffffffffffffffffff1614610912576040517f08c379a0000000000000000000000000000000000000000000000000000000008152600401610909906122f2565b60405180910390fd5b600073ffffffffffffffffffffffffffffffffffffffff1660008054906101000a900473ffffffffffffffffffffffffffffffffffffffff1673ffffffffffffffffffffffffffffffffffffffff167f8be0079c531659141344cd1fd0a4f28419497f9722a3daafe3b4186f6b6457e060405160405180910390a360008060006101000a81548173ffffffffffffffffffffffffffffffffffffffff021916908373ffffffffffffffffffffffffffffffffffffffff160217905550565b60008060009054906101000a900473ffffffffffffffffffffffffffffffffffffffff16905090565b60606040518060400160405280600781526020017f534341524b495400000000000000000000000000000000000000000000000000815250905090565b80600560003373ffffffffffffffffffffffffffffffffffffffff1673ffffffffffffffffffffffffffffffffffffffff16815260200190815260200160002060008473ffffffffffffffffffffffffffffffffffffffff1673ffffffffffffffffffffffffffffffffffffffff16815260200190815260200160002060006101000a81548160ff0219169083151502179055508173ffffffffffffffffffffffffffffffffffffffff163373ffffffffffffffffffffffffffffffffffffffff167f17307eab39ab6107e8899845ad3d59bd9653f200f220920489ca2b5937696c3183604051610b279190611f00565b60405180910390a35050565b600073ffffffffffffffffffffffffffffffffffffffff168273ffffffffffffffffffffffffffffffffffffffff1603610ba2576040517f08c379a0000000000000000000000000000000000000000000000000000000008152600401610b999061235e565b60405180910390fd5b3073ffffffffffffffffffffffffffffffffffffffff168273ffffffffffffffffffffffffffffffffffffffff1603610c10576040517f08c379a0000000000000000000000000000000000000000000000000000000008152600401610c07906123f0565b60405180910390fd5b6001805490508110610c57576040517f08c379a0000000000000000000000000000000000000000000000000000000008152600401610c4e90611ff6565b60405180910390fd5b60006003600083815260200190815260200160002060009054906101000a900473ffffffffffffffffffffffffffffffffffffffff169050600073ffffffffffffffffffffffffffffffffffffffff168173ffffffffffffffffffffffffffffffffffffffff1603610cfe576040517f08c379a0000000000000000000000000000000000000000000000000000000008152600401610cf590612062565b60405180910390fd5b8073ffffffffffffffffffffffffffffffffffffffff163373ffffffffffffffffffffffffffffffffffffffff161480610d9657503373ffffffffffffffffffffffffffffffffffffffff166004600084815260200190815260200160002060009054906101000a900473ffffffffffffffffffffffffffffffffffffffff1673ffffffffffffffffffffffffffffffffffffffff16145b80610e2e575060011515600560008373ffffffffffffffffffffffffffffffffffffffff1673ffffffffffffffffffffffffffffffffffffffff16815260200190815260200160002060003373ffffffffffffffffffffffffffffffffffffffff1673ffffffffffffffffffffffffffffffffffffffff16815260200190815260200160002060009054906101000a900460ff161515145b610e6d576040517f08c379a0000000000000000000000000000000000000000000000000000000008152600401610e6490612482565b60405180910390fd5b610e788184846116c2565b505050565b60008473ffffffffffffffffffffffffffffffffffffffff163b1115610fcd5760008473ffffffffffffffffffffffffffffffffffffffff1663150b7a0287878787876040518663ffffffff1660e01b8152600401610ee09594939291906124de565b6020604051808303816000875af1158015610eff573d6000803e3d6000fd5b505050506040513d601f19601f82011682018060405250810190610f2391906121e7565b905060007f150b7a023d4804d13e8c85fb27262cb750cf6ba9f9dd3bb30d90f482ceeb4b1f9050807bffffffffffffffffffffffffffffffffffffffffffffffffffffffff1916827bffffffffffffffffffffffffffffffffffffffffffffffffffffffff191614610fca576040517f08c379a0000000000000000000000000000000000000000000000000000000008152600401610fc190612286565b60405180910390fd5b50505b610fd88585856113e0565b5050505050565b3373ffffffffffffffffffffffffffffffffffffffff16610ffe6109d0565b73ffffffffffffffffffffffffffffffffffffffff1614611054576040517f08c379a000000000000000000000000000000000000000000000000000000000815260040161104b906122f2565b60405180910390fd5b611063600080600084336118d9565b5050565b6000600560008473ffffffffffffffffffffffffffffffffffffffff1673ffffffffffffffffffffffffffffffffffffffff16815260200190815260200160002060008373ffffffffffffffffffffffffffffffffffffffff1673ffffffffffffffffffffffffffffffffffffffff16815260200190815260200160002060009054906101000a900460ff16905092915050565b6000806000806000600180549050861061114a576040517f08c379a000000000000000000000000000000000000000000000000000000000815260040161114190612578565b60405180910390fd5b6000600187815481106111605761115f612598565b5b90600052602060002090600202019050806000015495508060010160009054906101000a900467ffffffffffffffff1667ffffffffffffffff1694508060010160089054906101000a900463ffffffff16935080600101600c9054906101000a900463ffffffff1692508060010160109054906101000a900461ffff1691505091939590929450565b3373ffffffffffffffffffffffffffffffffffffffff166112086109d0565b73ffffffffffffffffffffffffffffffffffffffff161461125e576040517f08c379a0000000000000000000000000000000000000000000000000000000008152600401611255906122f2565b60405180910390fd5b600073ffffffffffffffffffffffffffffffffffffffff168173ffffffffffffffffffffffffffffffffffffffff16036112cd576040517f08c379a00000000000000000000000000000000000000000000000000000000081526004016112c490612639565b60405180910390fd5b8073ffffffffffffffffffffffffffffffffffffffff1660008054906101000a900473ffffffffffffffffffffffffffffffffffffffff1673ffffffffffffffffffffffffffffffffffffffff167f8be0079c531659141344cd1fd0a4f28419497f9722a3daafe3b4186f6b6457e060405160405180910390a3806000806101000a81548173ffffffffffffffffffffffffffffffffffffffff021916908373ffffffffffffffffffffffffffffffffffffffff16021790555050565b816004600083815260200190815260200160002060006101000a81548173ffffffffffffffffffffffffffffffffffffffff021916908373ffffffffffffffffffffffffffffffffffffffff1602179055505050565b600073ffffffffffffffffffffffffffffffffffffffff168273ffffffffffffffffffffffffffffffffffffffff160361144f576040517f08c379a0000000000000000000000000000000000000000000000000000000008152600401611446906126a5565b60405180910390fd5b6001805490508110611496576040517f08c379a000000000000000000000000000000000000000000000000000000000815260040161148d90611ff6565b60405180910390fd5b60006003600083815260200190815260200160002060009054906101000a900473ffffffffffffffffffffffffffffffffffffffff1690508073ffffffffffffffffffffffffffffffffffffffff168473ffffffffffffffffffffffffffffffffffffffff161461153c576040517f08c379a000000000000000000000000000000000000000000000000000000000815260040161153390612711565b60405180910390fd5b60006004600084815260200190815260200160002060009054906101000a900473ffffffffffffffffffffffffffffffffffffffff1690503373ffffffffffffffffffffffffffffffffffffffff168273ffffffffffffffffffffffffffffffffffffffff16148061163b575060011515600560008473ffffffffffffffffffffffffffffffffffffffff1673ffffffffffffffffffffffffffffffffffffffff16815260200190815260200160002060003373ffffffffffffffffffffffffffffffffffffffff1673ffffffffffffffffffffffffffffffffffffffff16815260200190815260200160002060009054906101000a900460ff161515145b8061167157503373ffffffffffffffffffffffffffffffffffffffff168173ffffffffffffffffffffffffffffffffffffffff16145b6116b0576040517f08c379a00000000000000000000000000000000000000000000000000000000081526004016116a7906127c9565b60405180910390fd5b6116bb8585856116c2565b5050505050565b600073ffffffffffffffffffffffffffffffffffffffff168373ffffffffffffffffffffffffffffffffffffffff161461179c576000600260008573ffffffffffffffffffffffffffffffffffffffff1673ffffffffffffffffffffffffffffffffffffffff1681526020019081526020016000205411611746576117456127e9565b5b600260008473ffffffffffffffffffffffffffffffffffffffff1673ffffffffffffffffffffffffffffffffffffffff168152602001908152602001600020600081548092919061179690612847565b91905055505b816003600083815260200190815260200160002060006101000a81548173ffffffffffffffffffffffffffffffffffffffff021916908373ffffffffffffffffffffffffffffffffffffffff160217905550600260008373ffffffffffffffffffffffffffffffffffffffff1673ffffffffffffffffffffffffffffffffffffffff168152602001908152602001600020600081548092919061183e90612870565b91905055506004600082815260200190815260200160002060006101000a81549073ffffffffffffffffffffffffffffffffffffffff0219169055808273ffffffffffffffffffffffffffffffffffffffff168473ffffffffffffffffffffffffffffffffffffffff167fddf252ad1be2c89b69c2b068fc378daa952ba7f163c4a11628f55a4df523b3ef60405160405180910390a4505050565b6000806040518060a001604052808581526020014267ffffffffffffffff1681526020018863ffffffff1681526020018763ffffffff1681526020018661ffff16815250905060018190806001815401808255809150506001900390600052602060002090600202016000909190919091506000820151816000015560208201518160010160006101000a81548167ffffffffffffffff021916908367ffffffffffffffff16021790555060408201518160010160086101000a81548163ffffffff021916908363ffffffff160217905550606082015181600101600c6101000a81548163ffffffff021916908363ffffffff16021790555060808201518160010160106101000a81548161ffff021916908361ffff1602179055505050600060018080549050611a0a91906128b8565b9050611a18600085836116c2565b7fc1ea72b53c1f5c7777dc94a0f85ac93e5011bc83100167e5a57960135334534f8482898b89604051611a4f9594939291906128ec565b60405180910390a1809250505095945050505050565b600081519050919050565b600082825260208201905092915050565b60005b83811015611a9f578082015181840152602081019050611a84565b60008484015250505050565b6000601f19601f8301169050919050565b6000611ac782611a65565b611ad18185611a70565b9350611ae1818560208601611a81565b611aea81611aab565b840191505092915050565b60006020820190508181036000830152611b0f8184611abc565b905092915050565b600080fd5b600080fd5b6000819050919050565b611b3481611b21565b8114611b3f57600080fd5b50565b600081359050611b5181611b2b565b92915050565b600060208284031215611b6d57611b6c611b17565b5b6000611b7b84828501611b42565b91505092915050565b600073ffffffffffffffffffffffffffffffffffffffff82169050919050565b6000611baf82611b84565b9050919050565b611bbf81611ba4565b82525050565b6000602082019050611bda6000830184611bb6565b92915050565b611be981611ba4565b8114611bf457600080fd5b50565b600081359050611c0681611be0565b92915050565b60008060408385031215611c2357611c22611b17565b5b6000611c3185828601611bf7565b9250506020611c4285828601611b42565b9150509250929050565b600080fd5b600080fd5b600080fd5b60008083601f840112611c7157611c70611c4c565b5b8235905067ffffffffffffffff811115611c8e57611c8d611c51565b5b602083019150836001820283011115611caa57611ca9611c56565b5b9250929050565b600080600080600060808688031215611ccd57611ccc611b17565b5b6000611cdb88828901611bf7565b9550506020611cec88828901611bf7565b9450506040611cfd88828901611b42565b935050606086013567ffffffffffffffff811115611d1e57611d1d611b1c565b5b611d2a88828901611c5b565b92509250509295509295909350565b60007fffffffff0000000000000000000000000000000000000000000000000000000082169050919050565b611d6e81611d39565b82525050565b6000602082019050611d896000830184611d65565b92915050565b611d9881611b21565b82525050565b6000602082019050611db36000830184611d8f565b92915050565b600080600060608486031215611dd257611dd1611b17565b5b6000611de086828701611bf7565b9350506020611df186828701611bf7565b9250506040611e0286828701611b42565b9150509250925092565b600060208284031215611e2257611e21611b17565b5b6000611e3084828501611bf7565b91505092915050565b60008115159050919050565b611e4e81611e39565b8114611e5957600080fd5b50565b600081359050611e6b81611e45565b92915050565b60008060408385031215611e8857611e87611b17565b5b6000611e9685828601611bf7565b9250506020611ea785828601611e5c565b9150509250929050565b60008060408385031215611ec857611ec7611b17565b5b6000611ed685828601611bf7565b9250506020611ee785828601611bf7565b9150509250929050565b611efa81611e39565b82525050565b6000602082019050611f156000830184611ef1565b92915050565b600063ffffffff82169050919050565b611f3481611f1b565b82525050565b600061ffff82169050919050565b611f5181611f3a565b82525050565b600060a082019050611f6c6000830188611d8f565b611f796020830187611d8f565b611f866040830186611f2b565b611f936060830185611f2b565b611fa06080830184611f48565b9695505050505050565b7f496e76616c696420746f6b656e20696400000000000000000000000000000000600082015250565b6000611fe0601083611a70565b9150611feb82611faa565b602082019050919050565b6000602082019050818103600083015261200f81611fd3565b9050919050565b7f546f6b656e20696420646f6573206e6f74206578697374000000000000000000600082015250565b600061204c601783611a70565b915061205782612016565b602082019050919050565b6000602082019050818103600083015261207b8161203f565b9050919050565b7f43616c6c6572206973206e6f74206f776e6572206f662074686520746f6b656e60008201527f206f7220616e20617070726f766572206f662074686520746f6b656e206f776e60208201527f6572000000000000000000000000000000000000000000000000000000000000604082015250565b6000612104604283611a70565b915061210f82612082565b606082019050919050565b60006020820190508181036000830152612133816120f7565b9050919050565b600082825260208201905092915050565b50565b600061215b60008361213a565b91506121668261214b565b600082019050919050565b60006080820190506121866000830186611bb6565b6121936020830185611bb6565b6121a06040830184611d8f565b81810360608301526121b18161214e565b9050949350505050565b6121c481611d39565b81146121cf57600080fd5b50565b6000815190506121e1816121bb565b92915050565b6000602082840312156121fd576121fc611b17565b5b600061220b848285016121d2565b91505092915050565b7f5f746f206164647265737320646f6573206e6f7420737570706f72742045524360008201527f37323120636f6e74726163740000000000000000000000000000000000000000602082015250565b6000612270602c83611a70565b915061227b82612214565b604082019050919050565b6000602082019050818103600083015261229f81612263565b9050919050565b7f4f776e61626c653a2063616c6c6572206973206e6f7420746865206f776e6572600082015250565b60006122dc602083611a70565b91506122e7826122a6565b602082019050919050565b6000602082019050818103600083015261230b816122cf565b9050919050565b7f696e76616c696420746f20616464726573730000000000000000000000000000600082015250565b6000612348601283611a70565b915061235382612312565b602082019050919050565b600060208201905081810360008301526123778161233b565b9050919050565b7f746f2063616e6e6f742062652074686520636f6e74726163742061646472657360008201527f7300000000000000000000000000000000000000000000000000000000000000602082015250565b60006123da602183611a70565b91506123e58261237e565b604082019050919050565b60006020820190508181036000830152612409816123cd565b9050919050565b7f6f6e6c79206f776e65722f617070726f7665722063616e206d616b652061207460008201527f72616e7366657200000000000000000000000000000000000000000000000000602082015250565b600061246c602783611a70565b915061247782612410565b604082019050919050565b6000602082019050818103600083015261249b8161245f565b9050919050565b82818337600083830152505050565b60006124bd838561213a565b93506124ca8385846124a2565b6124d383611aab565b840190509392505050565b60006080820190506124f36000830188611bb6565b6125006020830187611bb6565b61250d6040830186611d8f565b81810360608301526125208184866124b1565b90509695505050505050565b7f496e76616c696420636174206964000000000000000000000000000000000000600082015250565b6000612562600e83611a70565b915061256d8261252c565b602082019050919050565b6000602082019050818103600083015261259181612555565b9050919050565b7f4e487b7100000000000000000000000000000000000000000000000000000000600052603260045260246000fd5b7f4f776e61626c653a206e6577206f776e657220697320746865207a65726f206160008201527f6464726573730000000000000000000000000000000000000000000000000000602082015250565b6000612623602683611a70565b915061262e826125c7565b604082019050919050565b6000602082019050818103600083015261265281612616565b9050919050565b7f696e76616c6964205f746f206164647265737300000000000000000000000000600082015250565b600061268f601383611a70565b915061269a82612659565b602082019050919050565b600060208201905081810360008301526126be81612682565b9050919050565b7f5f66726f6d2073686f756c642062652074686520746f6b656e206f776e657200600082015250565b60006126fb601f83611a70565b9150612706826126c5565b602082019050919050565b6000602082019050818103600083015261272a816126ee565b9050919050565b7f43616c6c6572206973206e6f74206f776e6572206f662074686520746f6b656e60008201527f206f7220616e206f70657261746f72206f662074686520746f6b656e206f776e60208201527f6572206f7220616e20617070726f766572206f662074686520746f6b656e0000604082015250565b60006127b3605e83611a70565b91506127be82612731565b606082019050919050565b600060208201905081810360008301526127e2816127a6565b9050919050565b7f4e487b7100000000000000000000000000000000000000000000000000000000600052600160045260246000fd5b7f4e487b7100000000000000000000000000000000000000000000000000000000600052601160045260246000fd5b600061285282611b21565b91506000820361286557612864612818565b5b600182039050919050565b600061287b82611b21565b91507fffffffffffffffffffffffffffffffffffffffffffffffffffffffffffffffff82036128ad576128ac612818565b5b600182019050919050565b60006128c382611b21565b91506128ce83611b21565b92508282039050818111156128e6576128e5612818565b5b92915050565b600060a0820190506129016000830188611bb6565b61290e6020830187611d8f565b61291b6040830186611f2b565b6129286060830185611f2b565b6129356080830184611d8f565b969550505050505056fea2646970667358221220a14e31d7640de786aca4d7aa21775770d2f3c1e897b08b92ea691021c23f729e64736f6c63430008110033",
  "immutableReferences": {},
  "source": "// SPDX-License-Identifier: MIT\n\npragma solidity ^0.8.0;\n\nimport \"./IERC721.sol\";\nimport \"./Ownable.sol\";\n\n\ninterface ISupportsERC721{\n    function onERC721Received(address,address,uint256,bytes calldata) external returns (bytes4);\n}\n\ncontract Kittycontract is IERC721, Ownable, ISupportsERC721 {\n    struct Kitty {\n        uint256 genes;\n        uint64 birthTime;\n        uint32 mumId;\n        uint32 dadId;\n        uint16 generation;\n    }\n\n    event Birth(\n        address owner,\n        uint256 tokenId,\n        uint32 dadId,\n        uint32 mumId,\n        uint256 genes\n    );\n\n    Kitty[] kitties;\n\n    //Associates an EOA with its balance\n    mapping(address => uint256) private balances;\n\n    //Associates a token id with its owner\n    mapping(uint256 => address) private tokenowners;\n\n    //Approvers of a token id\n    mapping(uint256 => address) private tokenApprovers;\n    mapping(address => mapping(address => bool)) private ownerApprovers;\n\n    function balanceOf(address owner) external view returns (uint256 balance) {\n        return balances[owner];\n    }\n\n    function totalSupply() external view returns (uint256 total) {\n        return kitties.length;\n    }\n\n    function name() external pure returns (string memory tokenName) {\n        return \"ScaredKitty\";\n    }\n\n    function symbol() external pure returns (string memory tokenSymbol) {\n        return \"SCARKIT\";\n    }\n\n    // Reverts if a token id does not exists?\n    function ownerOf(uint256 tokenid) external view returns (address owner) {\n        owner = tokenowners[tokenid];\n\n        require(owner != address(0), \"Token id does not exist\");\n    }\n\n    function transfer(address to, uint256 tokenId) external {\n        require(to != address(0), \"invalid to address\");\n        require(to != address(this), \"to cannot be the contract address\");\n        require(tokenId < kitties.length, \"Invalid token id\");\n\n        address owner = tokenowners[tokenId];\n\n        require(owner != address(0), \"Token id does not exist\");\n        require(msg.sender == owner || tokenApprovers[tokenId] == msg.sender || ownerApprovers[owner][msg.sender] == true, \"only owner/approver can make a transfer\");\n\n        _transfer(owner, to, tokenId);\n    }\n\n    function _transfer(\n        address _from,\n        address _to,\n        uint256 _tokenId\n    ) internal {\n        if (_from != address(0)) {\n            assert(balances[_from] > 0);\n\n            balances[_from]--;\n        }\n\n        tokenowners[_tokenId] = _to;\n        balances[_to]++;\n        // Account approved on this token should be revoked\n        delete tokenApprovers[_tokenId];\n\n        emit Transfer(_from, _to, _tokenId);\n    }\n\n    function createKittyGen0(uint256 _genes) public onlyOwner {\n        _createKitty(0, 0, 0, _genes, msg.sender);\n    }\n\n    function getKitty(uint256 _id)\n        public\n        view\n        returns (\n            uint256 genes,\n            uint256 birthTime,\n            uint32 mumId,\n            uint32 dadId,\n            uint16 generation\n        )\n    {\n        require(_id < kitties.length, \"Invalid cat id\");\n\n        Kitty storage kitty = kitties[_id];\n\n        genes = kitty.genes;\n        birthTime = kitty.birthTime;\n        mumId = kitty.mumId;\n        dadId = kitty.dadId;\n        generation = kitty.generation;\n    }\n\n    function _createKitty(\n        uint32 _mumId,\n        uint32 _dadId,\n        uint16 _generation,\n        uint256 _genes,\n        address _owner\n    ) internal returns (uint256) {\n        Kitty memory _kitty = Kitty({\n            genes: _genes,\n            birthTime: uint64(block.timestamp),\n            mumId: _mumId,\n            dadId: _dadId,\n            generation: _generation\n        });\n\n        kitties.push(_kitty);\n        uint256 newKittyTokenId = kitties.length - 1;\n\n        _transfer(address(0), _owner, newKittyTokenId);\n\n        emit Birth(_owner, newKittyTokenId, _dadId, _mumId, _genes);\n\n        return newKittyTokenId;\n    }\n\n    function approve(address _approved, uint256 _tokenId) external{\n\n        require(_tokenId < kitties.length, \"Token id does not exist\");\n\n        //msg.sender must be the owner or an existing operator of tokenId\n        address tokenOwner = tokenowners[_tokenId];\n\n        require( (tokenOwner == msg.sender || ownerApprovers[tokenOwner][msg.sender] == true) , 'Caller is not owner of the token or an approver of the token owner'); \n\n        _approve(_approved, _tokenId);        \n\n    }\n\n    /// @notice Change or reaffirm the approved address for an NFT\n    /// @dev The zero address indicates there is no approved address.\n    ///  Throws unless `msg.sender` is the current NFT owner, or an authorized\n    ///  operator of the current owner.\n    /// @param _approved The new approved NFT controller\n    /// @param _tokenId The NFT to approve\n    function _approve(address _approved, uint256 _tokenId) private{\n\n        tokenApprovers[_tokenId] = _approved;     \n    }\n\n    /// @notice Enable or disable approval for a third party (\"operator\") to manage\n    ///  all of `msg.sender`'s assets\n    /// @dev Emits the ApprovalForAll event. The contract MUST allow\n    ///  multiple operators per owner.\n    /// @param _operator Address to add to the set of authorized operators\n    /// @param _approved True if the operator is approved, false to revoke approval\n    function setApprovalForAll(address _operator, bool _approved) external{\n        \n        ownerApprovers[msg.sender][_operator] = _approved;\n\n        emit ApprovalForAll(msg.sender, _operator, _approved);\n    }\n\n    /// @notice Get the approved address for a single NFT\n    /// @dev Throws if `_tokenId` is not a valid NFT.\n    /// @param _tokenId The NFT to find the approved address for\n    /// @return The approved address for this NFT, or the zero address if there is none\n    function getApproved(uint256 _tokenId) external view returns (address){\n        require(_tokenId < kitties.length, \"Invalid token id\");\n\n        return tokenApprovers[_tokenId];\n\n    }\n\n    /// @notice Query if an address is an authorized operator for another address\n    /// @param _owner The address that owns the NFTs\n    /// @param _operator The address that acts on behalf of the owner\n    /// @return True if `_operator` is an approved operator for `_owner`, false otherwise\n    function isApprovedForAll(address _owner, address _operator) external view returns (bool){\n        return ownerApprovers[_owner][_operator];\n    }\n\n\n    function onERC721Received(address,address,uint256,bytes calldata) external pure returns (bytes4){\n        return bytes4(keccak256(\"onERC721Received(address,address,uint256,bytes)\"));\n    }\n\n\n    /// @notice Transfers the ownership of an NFT from one address to another address\n    /// @dev Throws unless `msg.sender` is the current owner, an authorized\n    ///  operator, or the approved address for this NFT. Throws if `_from` is\n    ///  not the current owner. Throws if `_to` is the zero address. Throws if\n    ///  `_tokenId` is not a valid NFT. When transfer is complete, this function\n    ///  checks if `_to` is a smart contract (code size > 0). If so, it calls\n    ///  `onERC721Received` on `_to` and throws if the return value is not\n    ///  `bytes4(keccak256(\"onERC721Received(address,address,uint256,bytes)\"))`.\n    /// @param _from The current owner of the NFT\n    /// @param _to The new owner\n    /// @param _tokenId The NFT to transfer\n    /// @param data Additional data with no specified format, sent in call to `_to`\n    function safeTransferFrom(address _from, address _to, uint256 _tokenId, bytes calldata data) external{\n\n        if (_to.code.length > 0 ){\n\n            bytes4 result = ISupportsERC721(_to).onERC721Received(_from, _to, _tokenId, data);\n\n            bytes4 expectedResult = bytes4(keccak256(\"onERC721Received(address,address,uint256,bytes)\"));\n\n            require(result == expectedResult, \"_to address does not support ERC721 contract\");\n        }        \n\n        _transferFrom(_from, _to, _tokenId);\n\n    }\n\n    /// @notice Transfers the ownership of an NFT from one address to another address\n    /// @dev This works identically to the other function with an extra data parameter,\n    ///  except this function just sets data to \"\".\n    /// @param _from The current owner of the NFT\n    /// @param _to The new owner\n    /// @param _tokenId The NFT to transfer\n    function safeTransferFrom(address _from, address _to, uint256 _tokenId) external{\n\n        if (_to.code.length > 0 ){\n\n            bytes4 result = ISupportsERC721(_to).onERC721Received(_from, _to, _tokenId, \"\");\n\n            bytes4 expectedResult = bytes4(keccak256(\"onERC721Received(address,address,uint256,bytes)\"));\n\n            require(result == expectedResult, \"_to address does not support ERC721 contract\");\n        }\n\n        _transferFrom(_from, _to, _tokenId);\n\n    }\n\n\n    /// @notice Transfer ownership of an NFT -- THE CALLER IS RESPONSIBLE\n    ///  TO CONFIRM THAT `_to` IS CAPABLE OF RECEIVING NFTS OR ELSE\n    ///  THEY MAY BE PERMANENTLY LOST\n    /// @dev Throws unless `msg.sender` is the current owner, an authorized\n    ///  operator, or the approved address for this NFT. Throws if `_from` is\n    ///  not the current owner. Throws if `_to` is the zero address. Throws if\n    ///  `_tokenId` is not a valid NFT.\n    /// @param _from The current owner of the NFT\n    /// @param _to The new owner\n    /// @param _tokenId The NFT to transfer\n    function transferFrom(address _from, address _to, uint256 _tokenId) external{\n\n\n        _transferFrom(_from, _to, _tokenId);\n    }    \n\n    function _transferFrom(address _from, address _to, uint256 _tokenId) private{\n        //msg.sender must be the owner or an existing operator of tokenId\n        require(_to != address(0), \"invalid _to address\");\n        require(_tokenId < kitties.length, \"Invalid token id\");\n\n        address tokenOwner = tokenowners[_tokenId];\n        require(_from == tokenOwner, \"_from should be the token owner\");\n\n        address approver = tokenApprovers[_tokenId];    \n        require( (tokenOwner == msg.sender \n        || ownerApprovers[tokenOwner][msg.sender] == true\n        || approver == msg.sender) , 'Caller is not owner of the token or an operator of the token owner or an approver of the token'); \n\n        _transfer(_from, _to, _tokenId);\n\n    }\n\n}\n",
  "sourcePath": "/media/psf/Ivan/NFT-marketplace/mygitrepo3/moralisacademy-nftmarketplace/contracts/Kittycontract.sol",
  "compiler": {
    "name": "solc",
    "version": "0.8.17+commit.8df45f5f.Emscripten.clang"
  },
  "schemaVersion": "3.4.10",
  "updatedAt": "2023-01-12T13:12:58.431Z",
  "devdoc": {
    "kind": "dev",
    "methods": {
      "approve(address,uint256)": {
        "details": "The zero address indicates there is no approved address.  Throws unless `msg.sender` is the current NFT owner, or an authorized  operator of the current owner.",
        "params": {
          "_approved": "The new approved NFT controller",
          "_tokenId": "The NFT to approve"
        }
      },
      "balanceOf(address)": {
        "details": "Returns the number of tokens in ``owner``'s account."
      },
      "getApproved(uint256)": {
        "details": "Throws if `_tokenId` is not a valid NFT.",
        "params": {
          "_tokenId": "The NFT to find the approved address for"
        },
        "returns": {
          "_0": "The approved address for this NFT, or the zero address if there is none"
        }
      },
      "isApprovedForAll(address,address)": {
        "params": {
          "_operator": "The address that acts on behalf of the owner",
          "_owner": "The address that owns the NFTs"
        },
        "returns": {
          "_0": "True if `_operator` is an approved operator for `_owner`, false otherwise"
        }
      },
      "owner()": {
        "details": "Returns the address of the current owner."
      },
      "renounceOwnership()": {
        "details": "Leaves the contract without owner. It will not be possible to call `onlyOwner` functions anymore. Can only be called by the current owner. NOTE: Renouncing ownership will leave the contract without an owner, thereby removing any functionality that is only available to the owner."
      },
      "safeTransferFrom(address,address,uint256)": {
        "details": "This works identically to the other function with an extra data parameter,  except this function just sets data to \"\".",
        "params": {
          "_from": "The current owner of the NFT",
          "_to": "The new owner",
          "_tokenId": "The NFT to transfer"
        }
      },
      "safeTransferFrom(address,address,uint256,bytes)": {
        "details": "Throws unless `msg.sender` is the current owner, an authorized  operator, or the approved address for this NFT. Throws if `_from` is  not the current owner. Throws if `_to` is the zero address. Throws if  `_tokenId` is not a valid NFT. When transfer is complete, this function  checks if `_to` is a smart contract (code size > 0). If so, it calls  `onERC721Received` on `_to` and throws if the return value is not  `bytes4(keccak256(\"onERC721Received(address,address,uint256,bytes)\"))`.",
        "params": {
          "_from": "The current owner of the NFT",
          "_to": "The new owner",
          "_tokenId": "The NFT to transfer",
          "data": "Additional data with no specified format, sent in call to `_to`"
        }
      },
      "setApprovalForAll(address,bool)": {
        "details": "Emits the ApprovalForAll event. The contract MUST allow  multiple operators per owner.",
        "params": {
          "_approved": "True if the operator is approved, false to revoke approval",
          "_operator": "Address to add to the set of authorized operators"
        }
      },
      "transferFrom(address,address,uint256)": {
        "details": "Throws unless `msg.sender` is the current owner, an authorized  operator, or the approved address for this NFT. Throws if `_from` is  not the current owner. Throws if `_to` is the zero address. Throws if  `_tokenId` is not a valid NFT.",
        "params": {
          "_from": "The current owner of the NFT",
          "_to": "The new owner",
          "_tokenId": "The NFT to transfer"
        }
      },
      "transferOwnership(address)": {
        "details": "Transfers ownership of the contract to a new account (`newOwner`). Can only be called by the current owner."
      }
    },
    "version": 1
  },
  "userdoc": {
    "kind": "user",
    "methods": {
      "approve(address,uint256)": {
        "notice": "Change or reaffirm the approved address for an NFT"
      },
      "getApproved(uint256)": {
        "notice": "Get the approved address for a single NFT"
      },
      "isApprovedForAll(address,address)": {
        "notice": "Query if an address is an authorized operator for another address"
      },
      "safeTransferFrom(address,address,uint256)": {
        "notice": "Transfers the ownership of an NFT from one address to another address"
      },
      "safeTransferFrom(address,address,uint256,bytes)": {
        "notice": "Transfers the ownership of an NFT from one address to another address"
      },
      "setApprovalForAll(address,bool)": {
        "notice": "Enable or disable approval for a third party (\"operator\") to manage  all of `msg.sender`'s assets"
      },
      "transferFrom(address,address,uint256)": {
        "notice": "Transfer ownership of an NFT -- THE CALLER IS RESPONSIBLE  TO CONFIRM THAT `_to` IS CAPABLE OF RECEIVING NFTS OR ELSE  THEY MAY BE PERMANENTLY LOST"
      }
    },
    "version": 1
  }
}