{
  "contractName": "Kittycontract",
  "abi": [
    {
      "anonymous": false,
      "inputs": [
        {
          "indexed": true,
          "internalType": "address",
          "name": "owner",
          "type": "address"
        },
        {
          "indexed": true,
          "internalType": "address",
          "name": "approved",
          "type": "address"
        },
        {
          "indexed": true,
          "internalType": "uint256",
          "name": "tokenId",
          "type": "uint256"
        }
      ],
      "name": "Approval",
      "type": "event"
    },
    {
      "anonymous": false,
      "inputs": [
        {
          "indexed": true,
          "internalType": "address",
          "name": "from",
          "type": "address"
        },
        {
          "indexed": true,
          "internalType": "address",
          "name": "to",
          "type": "address"
        },
        {
          "indexed": true,
          "internalType": "uint256",
          "name": "tokenId",
          "type": "uint256"
        }
      ],
      "name": "Transfer",
      "type": "event"
    },
    {
      "inputs": [
        {
          "internalType": "address",
          "name": "owner",
          "type": "address"
        }
      ],
      "name": "balanceOf",
      "outputs": [
        {
          "internalType": "uint256",
          "name": "balance",
          "type": "uint256"
        }
      ],
      "stateMutability": "view",
      "type": "function"
    },
    {
      "inputs": [],
      "name": "totalSupply",
      "outputs": [
        {
          "internalType": "uint256",
          "name": "total",
          "type": "uint256"
        }
      ],
      "stateMutability": "view",
      "type": "function"
    },
    {
      "inputs": [],
      "name": "name",
      "outputs": [
        {
          "internalType": "string",
          "name": "tokenName",
          "type": "string"
        }
      ],
      "stateMutability": "view",
      "type": "function"
    },
    {
      "inputs": [],
      "name": "symbol",
      "outputs": [
        {
          "internalType": "string",
          "name": "tokenSymbol",
          "type": "string"
        }
      ],
      "stateMutability": "view",
      "type": "function"
    },
    {
      "inputs": [
        {
          "internalType": "uint256",
          "name": "tokenid",
          "type": "uint256"
        }
      ],
      "name": "ownerOf",
      "outputs": [
        {
          "internalType": "address",
          "name": "owner",
          "type": "address"
        }
      ],
      "stateMutability": "view",
      "type": "function"
    },
    {
      "inputs": [
        {
          "internalType": "address",
          "name": "to",
          "type": "address"
        },
        {
          "internalType": "uint256",
          "name": "tokenId",
          "type": "uint256"
        }
      ],
      "name": "transfer",
      "outputs": [],
      "stateMutability": "nonpayable",
      "type": "function"
    }
  ],
  "bytecode": "0x608060405234801561001057600080fd5b5061099d806100206000396000f3fe608060405234801561001057600080fd5b50600436106100625760003560e01c806306fdde031461006757806318160ddd146100855780636352211e146100a357806370a08231146100d357806395d89b4114610103578063a9059cbb14610121575b600080fd5b61006f61013d565b60405161007c91906105e8565b60405180910390f35b61008d61017a565b60405161009a9190610623565b60405180910390f35b6100bd60048036038101906100b8919061066f565b610183565b6040516100ca91906106dd565b60405180910390f35b6100ed60048036038101906100e89190610724565b61022f565b6040516100fa9190610623565b60405180910390f35b61010b610277565b60405161011891906105e8565b60405180910390f35b61013b60048036038101906101369190610751565b6102b4565b005b60606040518060400160405280600b81526020017f5363617265644b69747479000000000000000000000000000000000000000000815250905090565b600060c8905090565b60006001600083815260200190815260200160002060009054906101000a900473ffffffffffffffffffffffffffffffffffffffff169050600073ffffffffffffffffffffffffffffffffffffffff168173ffffffffffffffffffffffffffffffffffffffff160361022a576040517f08c379a0000000000000000000000000000000000000000000000000000000008152600401610221906107dd565b60405180910390fd5b919050565b60008060008373ffffffffffffffffffffffffffffffffffffffff1673ffffffffffffffffffffffffffffffffffffffff168152602001908152602001600020549050919050565b60606040518060400160405280600781526020017f534341524b495400000000000000000000000000000000000000000000000000815250905090565b600073ffffffffffffffffffffffffffffffffffffffff168273ffffffffffffffffffffffffffffffffffffffff1603610323576040517f08c379a000000000000000000000000000000000000000000000000000000000815260040161031a90610849565b60405180910390fd5b3073ffffffffffffffffffffffffffffffffffffffff168273ffffffffffffffffffffffffffffffffffffffff1603610391576040517f08c379a0000000000000000000000000000000000000000000000000000000008152600401610388906108db565b60405180910390fd5b60006001600083815260200190815260200160002060009054906101000a900473ffffffffffffffffffffffffffffffffffffffff169050600073ffffffffffffffffffffffffffffffffffffffff168173ffffffffffffffffffffffffffffffffffffffff1603610438576040517f08c379a000000000000000000000000000000000000000000000000000000000815260040161042f906107dd565b60405180910390fd5b8073ffffffffffffffffffffffffffffffffffffffff163373ffffffffffffffffffffffffffffffffffffffff16146104a6576040517f08c379a000000000000000000000000000000000000000000000000000000000815260040161049d90610947565b60405180910390fd5b826001600084815260200190815260200160002060006101000a81548173ffffffffffffffffffffffffffffffffffffffff021916908373ffffffffffffffffffffffffffffffffffffffff160217905550818373ffffffffffffffffffffffffffffffffffffffff163373ffffffffffffffffffffffffffffffffffffffff167fddf252ad1be2c89b69c2b068fc378daa952ba7f163c4a11628f55a4df523b3ef60405160405180910390a4505050565b600081519050919050565b600082825260208201905092915050565b60005b83811015610592578082015181840152602081019050610577565b60008484015250505050565b6000601f19601f8301169050919050565b60006105ba82610558565b6105c48185610563565b93506105d4818560208601610574565b6105dd8161059e565b840191505092915050565b6000602082019050818103600083015261060281846105af565b905092915050565b6000819050919050565b61061d8161060a565b82525050565b60006020820190506106386000830184610614565b92915050565b600080fd5b61064c8161060a565b811461065757600080fd5b50565b60008135905061066981610643565b92915050565b6000602082840312156106855761068461063e565b5b60006106938482850161065a565b91505092915050565b600073ffffffffffffffffffffffffffffffffffffffff82169050919050565b60006106c78261069c565b9050919050565b6106d7816106bc565b82525050565b60006020820190506106f260008301846106ce565b92915050565b610701816106bc565b811461070c57600080fd5b50565b60008135905061071e816106f8565b92915050565b60006020828403121561073a5761073961063e565b5b60006107488482850161070f565b91505092915050565b600080604083850312156107685761076761063e565b5b60006107768582860161070f565b92505060206107878582860161065a565b9150509250929050565b7f546f6b656e20696420646f6573206e6f74206578697374000000000000000000600082015250565b60006107c7601783610563565b91506107d282610791565b602082019050919050565b600060208201905081810360008301526107f6816107ba565b9050919050565b7f696e76616c696420746f20616464726573730000000000000000000000000000600082015250565b6000610833601283610563565b915061083e826107fd565b602082019050919050565b6000602082019050818103600083015261086281610826565b9050919050565b7f746f2063616e6e6f742062652074686520636f6e74726163742061646472657360008201527f7300000000000000000000000000000000000000000000000000000000000000602082015250565b60006108c5602183610563565b91506108d082610869565b604082019050919050565b600060208201905081810360008301526108f4816108b8565b9050919050565b7f6f6e6c79206f776e65722063616e206d616b652061207472616e736665720000600082015250565b6000610931601e83610563565b915061093c826108fb565b602082019050919050565b6000602082019050818103600083015261096081610924565b905091905056fea264697066735822122078846f4fe1d26773fbbb2a869fb3276f633ff2e08bfdebaf9e01b9afc558a1a864736f6c63430008110033",
  "immutableReferences": {},
  "source": "// SPDX-License-Identifier: MIT\n\npragma solidity ^0.8.0;\n\nimport \"./IERC721.sol\";\n\ncontract Kittycontract is IERC721{\n\n\n    //Associates an EOA with its balance\n    mapping(address => uint) private balances; \n\n    //Associates a token id with its owner\n    mapping(uint => address) private tokenowners;\n\n\n    function balanceOf(address owner) external view returns (uint256 balance) {\n        return balances[owner];\n    }\n\n    function totalSupply() external view returns (uint256 total){\n        return 200;\n    }\n\n    function name() external view returns (string memory tokenName){\n        return \"ScaredKitty\";\n    }\n\n    function symbol() external view returns (string memory tokenSymbol){\n        return \"SCARKIT\";\n    }\n\n    // Reverts if a token id does not exists?\n    function ownerOf(uint256 tokenid) external view returns (address owner){\n\n        owner = tokenowners[tokenid];\n\n        require(owner != address(0), 'Token id does not exist');\n\n        return owner;\n    }\n\n    function transfer(address to, uint256 tokenId) external{\n\n        require(to != address(0), 'invalid to address');\n        require(to != address(this), 'to cannot be the contract address');\n\n        address owner = tokenowners[tokenId];\n\n        require(owner != address(0), 'Token id does not exist');\n        require(msg.sender == owner, 'only owner can make a transfer');\n\n        tokenowners[tokenId] = to;\n\n        emit Transfer(msg.sender, to, tokenId);\n\n    }\n}\n\n\n\n\n\n",
  "sourcePath": "/media/psf/Ivan/NFT-marketplace/mygitrepo/moralisacademy-nftmarketplace/contracts/Kittycontract.sol",
  "compiler": {
    "name": "solc",
    "version": "0.8.17+commit.8df45f5f.Emscripten.clang"
  },
  "schemaVersion": "3.4.10",
  "updatedAt": "2022-09-24T10:52:38.311Z",
  "devdoc": {
    "kind": "dev",
    "methods": {
      "balanceOf(address)": {
        "details": "Returns the number of tokens in ``owner``'s account."
      }
    },
    "version": 1
  },
  "userdoc": {
    "kind": "user",
    "methods": {},
    "version": 1
  }
}