{
  "contractName": "Kittycontract",
  "abi": [
    {
      "anonymous": false,
      "inputs": [
        {
          "indexed": true,
          "internalType": "address",
          "name": "owner",
          "type": "address"
        },
        {
          "indexed": true,
          "internalType": "address",
          "name": "approved",
          "type": "address"
        },
        {
          "indexed": true,
          "internalType": "uint256",
          "name": "tokenId",
          "type": "uint256"
        }
      ],
      "name": "Approval",
      "type": "event"
    },
    {
      "anonymous": false,
      "inputs": [
        {
          "indexed": true,
          "internalType": "address",
          "name": "owner",
          "type": "address"
        },
        {
          "indexed": true,
          "internalType": "address",
          "name": "operator",
          "type": "address"
        },
        {
          "indexed": false,
          "internalType": "bool",
          "name": "approved",
          "type": "bool"
        }
      ],
      "name": "ApprovalForAll",
      "type": "event"
    },
    {
      "anonymous": false,
      "inputs": [
        {
          "indexed": false,
          "internalType": "address",
          "name": "owner",
          "type": "address"
        },
        {
          "indexed": false,
          "internalType": "uint256",
          "name": "tokenId",
          "type": "uint256"
        },
        {
          "indexed": false,
          "internalType": "uint32",
          "name": "dadId",
          "type": "uint32"
        },
        {
          "indexed": false,
          "internalType": "uint32",
          "name": "mumId",
          "type": "uint32"
        },
        {
          "indexed": false,
          "internalType": "uint256",
          "name": "genes",
          "type": "uint256"
        }
      ],
      "name": "Birth",
      "type": "event"
    },
    {
      "anonymous": false,
      "inputs": [
        {
          "indexed": true,
          "internalType": "address",
          "name": "previousOwner",
          "type": "address"
        },
        {
          "indexed": true,
          "internalType": "address",
          "name": "newOwner",
          "type": "address"
        }
      ],
      "name": "OwnershipTransferred",
      "type": "event"
    },
    {
      "anonymous": false,
      "inputs": [
        {
          "indexed": true,
          "internalType": "address",
          "name": "from",
          "type": "address"
        },
        {
          "indexed": true,
          "internalType": "address",
          "name": "to",
          "type": "address"
        },
        {
          "indexed": true,
          "internalType": "uint256",
          "name": "tokenId",
          "type": "uint256"
        }
      ],
      "name": "Transfer",
      "type": "event"
    },
    {
      "inputs": [],
      "name": "owner",
      "outputs": [
        {
          "internalType": "address",
          "name": "",
          "type": "address"
        }
      ],
      "stateMutability": "view",
      "type": "function"
    },
    {
      "inputs": [],
      "name": "renounceOwnership",
      "outputs": [],
      "stateMutability": "nonpayable",
      "type": "function"
    },
    {
      "inputs": [
        {
          "internalType": "address",
          "name": "newOwner",
          "type": "address"
        }
      ],
      "name": "transferOwnership",
      "outputs": [],
      "stateMutability": "nonpayable",
      "type": "function"
    },
    {
      "inputs": [
        {
          "internalType": "address",
          "name": "owner",
          "type": "address"
        }
      ],
      "name": "balanceOf",
      "outputs": [
        {
          "internalType": "uint256",
          "name": "balance",
          "type": "uint256"
        }
      ],
      "stateMutability": "view",
      "type": "function"
    },
    {
      "inputs": [],
      "name": "totalSupply",
      "outputs": [
        {
          "internalType": "uint256",
          "name": "total",
          "type": "uint256"
        }
      ],
      "stateMutability": "view",
      "type": "function"
    },
    {
      "inputs": [],
      "name": "name",
      "outputs": [
        {
          "internalType": "string",
          "name": "tokenName",
          "type": "string"
        }
      ],
      "stateMutability": "view",
      "type": "function"
    },
    {
      "inputs": [],
      "name": "symbol",
      "outputs": [
        {
          "internalType": "string",
          "name": "tokenSymbol",
          "type": "string"
        }
      ],
      "stateMutability": "view",
      "type": "function"
    },
    {
      "inputs": [
        {
          "internalType": "uint256",
          "name": "tokenid",
          "type": "uint256"
        }
      ],
      "name": "ownerOf",
      "outputs": [
        {
          "internalType": "address",
          "name": "owner",
          "type": "address"
        }
      ],
      "stateMutability": "view",
      "type": "function"
    },
    {
      "inputs": [
        {
          "internalType": "address",
          "name": "to",
          "type": "address"
        },
        {
          "internalType": "uint256",
          "name": "tokenId",
          "type": "uint256"
        }
      ],
      "name": "transfer",
      "outputs": [],
      "stateMutability": "nonpayable",
      "type": "function"
    },
    {
      "inputs": [
        {
          "internalType": "uint256",
          "name": "_genes",
          "type": "uint256"
        }
      ],
      "name": "createKittyGen0",
      "outputs": [],
      "stateMutability": "nonpayable",
      "type": "function"
    },
    {
      "inputs": [
        {
          "internalType": "uint256",
          "name": "_id",
          "type": "uint256"
        }
      ],
      "name": "getKitty",
      "outputs": [
        {
          "internalType": "uint256",
          "name": "genes",
          "type": "uint256"
        },
        {
          "internalType": "uint256",
          "name": "birthTime",
          "type": "uint256"
        },
        {
          "internalType": "uint32",
          "name": "mumId",
          "type": "uint32"
        },
        {
          "internalType": "uint32",
          "name": "dadId",
          "type": "uint32"
        },
        {
          "internalType": "uint16",
          "name": "generation",
          "type": "uint16"
        }
      ],
      "stateMutability": "view",
      "type": "function"
    },
    {
      "inputs": [
        {
          "internalType": "address",
          "name": "_approved",
          "type": "address"
        },
        {
          "internalType": "uint256",
          "name": "_tokenId",
          "type": "uint256"
        }
      ],
      "name": "approve",
      "outputs": [],
      "stateMutability": "nonpayable",
      "type": "function"
    },
    {
      "inputs": [
        {
          "internalType": "address",
          "name": "_operator",
          "type": "address"
        },
        {
          "internalType": "bool",
          "name": "_approved",
          "type": "bool"
        }
      ],
      "name": "setApprovalForAll",
      "outputs": [],
      "stateMutability": "nonpayable",
      "type": "function"
    },
    {
      "inputs": [
        {
          "internalType": "uint256",
          "name": "_tokenId",
          "type": "uint256"
        }
      ],
      "name": "getApproved",
      "outputs": [
        {
          "internalType": "address",
          "name": "",
          "type": "address"
        }
      ],
      "stateMutability": "view",
      "type": "function"
    },
    {
      "inputs": [
        {
          "internalType": "address",
          "name": "_owner",
          "type": "address"
        },
        {
          "internalType": "address",
          "name": "_operator",
          "type": "address"
        }
      ],
      "name": "isApprovedForAll",
      "outputs": [
        {
          "internalType": "bool",
          "name": "",
          "type": "bool"
        }
      ],
      "stateMutability": "view",
      "type": "function"
    }
  ],
  "bytecode": "0x608060405234801561001057600080fd5b506000339050806000806101000a81548173ffffffffffffffffffffffffffffffffffffffff021916908373ffffffffffffffffffffffffffffffffffffffff1602179055508073ffffffffffffffffffffffffffffffffffffffff16600073ffffffffffffffffffffffffffffffffffffffff167f8be0079c531659141344cd1fd0a4f28419497f9722a3daafe3b4186f6b6457e060405160405180910390a350611d17806100c16000396000f3fe608060405234801561001057600080fd5b50600436106100f55760003560e01c80638da5cb5b11610097578063d5a776ca11610066578063d5a776ca14610260578063e985e9c51461027c578063e98b7f4d146102ac578063f2fde38b146102e0576100f5565b80638da5cb5b146101ec57806395d89b411461020a578063a22cb46514610228578063a9059cbb14610244576100f5565b806318160ddd116100d357806318160ddd146101645780636352211e1461018257806370a08231146101b2578063715018a6146101e2576100f5565b806306fdde03146100fa578063081812fc14610118578063095ea7b314610148575b600080fd5b6101026102fc565b60405161010f91906113b8565b60405180910390f35b610132600480360381019061012d9190611415565b610339565b60405161013f9190611483565b60405180910390f35b610162600480360381019061015d91906114ca565b6103bd565b005b61016c610551565b6040516101799190611519565b60405180910390f35b61019c60048036038101906101979190611415565b61055e565b6040516101a99190611483565b60405180910390f35b6101cc60048036038101906101c79190611534565b61060a565b6040516101d99190611519565b60405180910390f35b6101ea610653565b005b6101f4610786565b6040516102019190611483565b60405180910390f35b6102126107af565b60405161021f91906113b8565b60405180910390f35b610242600480360381019061023d9190611599565b6107ec565b005b61025e600480360381019061025991906114ca565b610884565b005b61027a60048036038101906102759190611415565b610b87565b005b610296600480360381019061029191906115d9565b610c0f565b6040516102a39190611628565b60405180910390f35b6102c660048036038101906102c19190611415565b610ca3565b6040516102d795949392919061167f565b60405180910390f35b6102fa60048036038101906102f59190611534565b610d91565b005b60606040518060400160405280600b81526020017f5363617265644b69747479000000000000000000000000000000000000000000815250905090565b60006001805490508210610382576040517f08c379a00000000000000000000000000000000000000000000000000000000081526004016103799061171e565b60405180910390fd5b6004600083815260200190815260200160002060009054906101000a900473ffffffffffffffffffffffffffffffffffffffff169050919050565b6001805490508110610404576040517f08c379a00000000000000000000000000000000000000000000000000000000081526004016103fb9061178a565b60405180910390fd5b60006003600083815260200190815260200160002060009054906101000a900473ffffffffffffffffffffffffffffffffffffffff1690503373ffffffffffffffffffffffffffffffffffffffff168173ffffffffffffffffffffffffffffffffffffffff161480610503575060011515600560008373ffffffffffffffffffffffffffffffffffffffff1673ffffffffffffffffffffffffffffffffffffffff16815260200190815260200160002060003373ffffffffffffffffffffffffffffffffffffffff1673ffffffffffffffffffffffffffffffffffffffff16815260200190815260200160002060009054906101000a900460ff161515145b610542576040517f08c379a000000000000000000000000000000000000000000000000000000000815260040161053990611842565b60405180910390fd5b61054c8383610f32565b505050565b6000600180549050905090565b60006003600083815260200190815260200160002060009054906101000a900473ffffffffffffffffffffffffffffffffffffffff169050600073ffffffffffffffffffffffffffffffffffffffff168173ffffffffffffffffffffffffffffffffffffffff1603610605576040517f08c379a00000000000000000000000000000000000000000000000000000000081526004016105fc9061178a565b60405180910390fd5b919050565b6000600260008373ffffffffffffffffffffffffffffffffffffffff1673ffffffffffffffffffffffffffffffffffffffff168152602001908152602001600020549050919050565b3373ffffffffffffffffffffffffffffffffffffffff16610672610786565b73ffffffffffffffffffffffffffffffffffffffff16146106c8576040517f08c379a00000000000000000000000000000000000000000000000000000000081526004016106bf906118ae565b60405180910390fd5b600073ffffffffffffffffffffffffffffffffffffffff1660008054906101000a900473ffffffffffffffffffffffffffffffffffffffff1673ffffffffffffffffffffffffffffffffffffffff167f8be0079c531659141344cd1fd0a4f28419497f9722a3daafe3b4186f6b6457e060405160405180910390a360008060006101000a81548173ffffffffffffffffffffffffffffffffffffffff021916908373ffffffffffffffffffffffffffffffffffffffff160217905550565b60008060009054906101000a900473ffffffffffffffffffffffffffffffffffffffff16905090565b60606040518060400160405280600781526020017f534341524b495400000000000000000000000000000000000000000000000000815250905090565b80600560003373ffffffffffffffffffffffffffffffffffffffff1673ffffffffffffffffffffffffffffffffffffffff16815260200190815260200160002060008473ffffffffffffffffffffffffffffffffffffffff1673ffffffffffffffffffffffffffffffffffffffff16815260200190815260200160002060006101000a81548160ff0219169083151502179055505050565b600073ffffffffffffffffffffffffffffffffffffffff168273ffffffffffffffffffffffffffffffffffffffff16036108f3576040517f08c379a00000000000000000000000000000000000000000000000000000000081526004016108ea9061191a565b60405180910390fd5b3073ffffffffffffffffffffffffffffffffffffffff168273ffffffffffffffffffffffffffffffffffffffff1603610961576040517f08c379a0000000000000000000000000000000000000000000000000000000008152600401610958906119ac565b60405180910390fd5b60006003600083815260200190815260200160002060009054906101000a900473ffffffffffffffffffffffffffffffffffffffff169050600073ffffffffffffffffffffffffffffffffffffffff168173ffffffffffffffffffffffffffffffffffffffff1603610a08576040517f08c379a00000000000000000000000000000000000000000000000000000000081526004016109ff9061178a565b60405180910390fd5b8073ffffffffffffffffffffffffffffffffffffffff163373ffffffffffffffffffffffffffffffffffffffff161480610aa057503373ffffffffffffffffffffffffffffffffffffffff166004600084815260200190815260200160002060009054906101000a900473ffffffffffffffffffffffffffffffffffffffff1673ffffffffffffffffffffffffffffffffffffffff16145b80610b38575060011515600560008373ffffffffffffffffffffffffffffffffffffffff1673ffffffffffffffffffffffffffffffffffffffff16815260200190815260200160002060003373ffffffffffffffffffffffffffffffffffffffff1673ffffffffffffffffffffffffffffffffffffffff16815260200190815260200160002060009054906101000a900460ff161515145b610b77576040517f08c379a0000000000000000000000000000000000000000000000000000000008152600401610b6e90611a3e565b60405180910390fd5b610b82818484610f88565b505050565b3373ffffffffffffffffffffffffffffffffffffffff16610ba6610786565b73ffffffffffffffffffffffffffffffffffffffff1614610bfc576040517f08c379a0000000000000000000000000000000000000000000000000000000008152600401610bf3906118ae565b60405180910390fd5b610c0b6000806000843361119f565b5050565b6000600560008473ffffffffffffffffffffffffffffffffffffffff1673ffffffffffffffffffffffffffffffffffffffff16815260200190815260200160002060008373ffffffffffffffffffffffffffffffffffffffff1673ffffffffffffffffffffffffffffffffffffffff16815260200190815260200160002060009054906101000a900460ff16905092915050565b60008060008060006001805490508610610cf2576040517f08c379a0000000000000000000000000000000000000000000000000000000008152600401610ce990611aaa565b60405180910390fd5b600060018781548110610d0857610d07611aca565b5b90600052602060002090600202019050806000015495508060010160009054906101000a900467ffffffffffffffff1667ffffffffffffffff1694508060010160089054906101000a900463ffffffff16935080600101600c9054906101000a900463ffffffff1692508060010160109054906101000a900461ffff1691505091939590929450565b3373ffffffffffffffffffffffffffffffffffffffff16610db0610786565b73ffffffffffffffffffffffffffffffffffffffff1614610e06576040517f08c379a0000000000000000000000000000000000000000000000000000000008152600401610dfd906118ae565b60405180910390fd5b600073ffffffffffffffffffffffffffffffffffffffff168173ffffffffffffffffffffffffffffffffffffffff1603610e75576040517f08c379a0000000000000000000000000000000000000000000000000000000008152600401610e6c90611b6b565b60405180910390fd5b8073ffffffffffffffffffffffffffffffffffffffff1660008054906101000a900473ffffffffffffffffffffffffffffffffffffffff1673ffffffffffffffffffffffffffffffffffffffff167f8be0079c531659141344cd1fd0a4f28419497f9722a3daafe3b4186f6b6457e060405160405180910390a3806000806101000a81548173ffffffffffffffffffffffffffffffffffffffff021916908373ffffffffffffffffffffffffffffffffffffffff16021790555050565b816004600083815260200190815260200160002060006101000a81548173ffffffffffffffffffffffffffffffffffffffff021916908373ffffffffffffffffffffffffffffffffffffffff1602179055505050565b600073ffffffffffffffffffffffffffffffffffffffff168373ffffffffffffffffffffffffffffffffffffffff1614611062576000600260008573ffffffffffffffffffffffffffffffffffffffff1673ffffffffffffffffffffffffffffffffffffffff168152602001908152602001600020541161100c5761100b611b8b565b5b600260008473ffffffffffffffffffffffffffffffffffffffff1673ffffffffffffffffffffffffffffffffffffffff168152602001908152602001600020600081548092919061105c90611be9565b91905055505b816003600083815260200190815260200160002060006101000a81548173ffffffffffffffffffffffffffffffffffffffff021916908373ffffffffffffffffffffffffffffffffffffffff160217905550600260008373ffffffffffffffffffffffffffffffffffffffff1673ffffffffffffffffffffffffffffffffffffffff168152602001908152602001600020600081548092919061110490611c12565b91905055506004600082815260200190815260200160002060006101000a81549073ffffffffffffffffffffffffffffffffffffffff0219169055808273ffffffffffffffffffffffffffffffffffffffff168473ffffffffffffffffffffffffffffffffffffffff167fddf252ad1be2c89b69c2b068fc378daa952ba7f163c4a11628f55a4df523b3ef60405160405180910390a4505050565b6000806040518060a001604052808581526020014267ffffffffffffffff1681526020018863ffffffff1681526020018763ffffffff1681526020018661ffff16815250905060018190806001815401808255809150506001900390600052602060002090600202016000909190919091506000820151816000015560208201518160010160006101000a81548167ffffffffffffffff021916908367ffffffffffffffff16021790555060408201518160010160086101000a81548163ffffffff021916908363ffffffff160217905550606082015181600101600c6101000a81548163ffffffff021916908363ffffffff16021790555060808201518160010160106101000a81548161ffff021916908361ffff16021790555050506000600180805490506112d09190611c5a565b90506112de60008583610f88565b7fc1ea72b53c1f5c7777dc94a0f85ac93e5011bc83100167e5a57960135334534f8482898b89604051611315959493929190611c8e565b60405180910390a1505095945050505050565b600081519050919050565b600082825260208201905092915050565b60005b83811015611362578082015181840152602081019050611347565b60008484015250505050565b6000601f19601f8301169050919050565b600061138a82611328565b6113948185611333565b93506113a4818560208601611344565b6113ad8161136e565b840191505092915050565b600060208201905081810360008301526113d2818461137f565b905092915050565b600080fd5b6000819050919050565b6113f2816113df565b81146113fd57600080fd5b50565b60008135905061140f816113e9565b92915050565b60006020828403121561142b5761142a6113da565b5b600061143984828501611400565b91505092915050565b600073ffffffffffffffffffffffffffffffffffffffff82169050919050565b600061146d82611442565b9050919050565b61147d81611462565b82525050565b60006020820190506114986000830184611474565b92915050565b6114a781611462565b81146114b257600080fd5b50565b6000813590506114c48161149e565b92915050565b600080604083850312156114e1576114e06113da565b5b60006114ef858286016114b5565b925050602061150085828601611400565b9150509250929050565b611513816113df565b82525050565b600060208201905061152e600083018461150a565b92915050565b60006020828403121561154a576115496113da565b5b6000611558848285016114b5565b91505092915050565b60008115159050919050565b61157681611561565b811461158157600080fd5b50565b6000813590506115938161156d565b92915050565b600080604083850312156115b0576115af6113da565b5b60006115be858286016114b5565b92505060206115cf85828601611584565b9150509250929050565b600080604083850312156115f0576115ef6113da565b5b60006115fe858286016114b5565b925050602061160f858286016114b5565b9150509250929050565b61162281611561565b82525050565b600060208201905061163d6000830184611619565b92915050565b600063ffffffff82169050919050565b61165c81611643565b82525050565b600061ffff82169050919050565b61167981611662565b82525050565b600060a082019050611694600083018861150a565b6116a1602083018761150a565b6116ae6040830186611653565b6116bb6060830185611653565b6116c86080830184611670565b9695505050505050565b7f496e76616c696420746f6b656e20696400000000000000000000000000000000600082015250565b6000611708601083611333565b9150611713826116d2565b602082019050919050565b60006020820190508181036000830152611737816116fb565b9050919050565b7f546f6b656e20696420646f6573206e6f74206578697374000000000000000000600082015250565b6000611774601783611333565b915061177f8261173e565b602082019050919050565b600060208201905081810360008301526117a381611767565b9050919050565b7f43616c6c6572206973206e6f74206f776e6572206f662074686520746f6b656e60008201527f206f7220616e20617070726f766572206f662074686520746f6b656e206f776e60208201527f6572000000000000000000000000000000000000000000000000000000000000604082015250565b600061182c604283611333565b9150611837826117aa565b606082019050919050565b6000602082019050818103600083015261185b8161181f565b9050919050565b7f4f776e61626c653a2063616c6c6572206973206e6f7420746865206f776e6572600082015250565b6000611898602083611333565b91506118a382611862565b602082019050919050565b600060208201905081810360008301526118c78161188b565b9050919050565b7f696e76616c696420746f20616464726573730000000000000000000000000000600082015250565b6000611904601283611333565b915061190f826118ce565b602082019050919050565b60006020820190508181036000830152611933816118f7565b9050919050565b7f746f2063616e6e6f742062652074686520636f6e74726163742061646472657360008201527f7300000000000000000000000000000000000000000000000000000000000000602082015250565b6000611996602183611333565b91506119a18261193a565b604082019050919050565b600060208201905081810360008301526119c581611989565b9050919050565b7f6f6e6c79206f776e65722f617070726f7665722063616e206d616b652061207460008201527f72616e7366657200000000000000000000000000000000000000000000000000602082015250565b6000611a28602783611333565b9150611a33826119cc565b604082019050919050565b60006020820190508181036000830152611a5781611a1b565b9050919050565b7f496e76616c696420636174206964000000000000000000000000000000000000600082015250565b6000611a94600e83611333565b9150611a9f82611a5e565b602082019050919050565b60006020820190508181036000830152611ac381611a87565b9050919050565b7f4e487b7100000000000000000000000000000000000000000000000000000000600052603260045260246000fd5b7f4f776e61626c653a206e6577206f776e657220697320746865207a65726f206160008201527f6464726573730000000000000000000000000000000000000000000000000000602082015250565b6000611b55602683611333565b9150611b6082611af9565b604082019050919050565b60006020820190508181036000830152611b8481611b48565b9050919050565b7f4e487b7100000000000000000000000000000000000000000000000000000000600052600160045260246000fd5b7f4e487b7100000000000000000000000000000000000000000000000000000000600052601160045260246000fd5b6000611bf4826113df565b915060008203611c0757611c06611bba565b5b600182039050919050565b6000611c1d826113df565b91507fffffffffffffffffffffffffffffffffffffffffffffffffffffffffffffffff8203611c4f57611c4e611bba565b5b600182019050919050565b6000611c65826113df565b9150611c70836113df565b9250828203905081811115611c8857611c87611bba565b5b92915050565b600060a082019050611ca36000830188611474565b611cb0602083018761150a565b611cbd6040830186611653565b611cca6060830185611653565b611cd7608083018461150a565b969550505050505056fea264697066735822122099f402b8cf2ee54add6ae85ca2f15fba7bca268baa7a402cd0cfc75a3dd16d3e64736f6c63430008110033",
  "immutableReferences": {},
  "source": "// SPDX-License-Identifier: MIT\n\npragma solidity ^0.8.0;\n\nimport \"./IERC721.sol\";\nimport \"./Ownable.sol\";\n\ncontract Kittycontract is IERC721, Ownable {\n    struct Kitty {\n        uint256 genes;\n        uint64 birthTime;\n        uint32 mumId;\n        uint32 dadId;\n        uint16 generation;\n    }\n\n    event Birth(\n        address owner,\n        uint256 tokenId,\n        uint32 dadId,\n        uint32 mumId,\n        uint256 genes\n    );\n\n    Kitty[] kitties;\n\n    //Associates an EOA with its balance\n    mapping(address => uint256) private balances;\n\n    //Associates a token id with its owner\n    mapping(uint256 => address) private tokenowners;\n\n    //Approvers of a token id\n    mapping(uint256 => address) private tokenApprovers;\n    mapping(address => mapping(address => bool)) private ownerApprovers;\n\n    function balanceOf(address owner) external view returns (uint256 balance) {\n        return balances[owner];\n    }\n\n    function totalSupply() external view returns (uint256 total) {\n        return kitties.length;\n    }\n\n    function name() external view returns (string memory tokenName) {\n        return \"ScaredKitty\";\n    }\n\n    function symbol() external view returns (string memory tokenSymbol) {\n        return \"SCARKIT\";\n    }\n\n    // Reverts if a token id does not exists?\n    function ownerOf(uint256 tokenid) external view returns (address owner) {\n        owner = tokenowners[tokenid];\n\n        require(owner != address(0), \"Token id does not exist\");\n    }\n\n    function transfer(address to, uint256 tokenId) external {\n        require(to != address(0), \"invalid to address\");\n        require(to != address(this), \"to cannot be the contract address\");\n\n        address owner = tokenowners[tokenId];\n\n        require(owner != address(0), \"Token id does not exist\");\n        require(msg.sender == owner || tokenApprovers[tokenId] == msg.sender || ownerApprovers[owner][msg.sender] == true, \"only owner/approver can make a transfer\");\n\n        _transfer(owner, to, tokenId);\n    }\n\n    function _transfer(\n        address _from,\n        address _to,\n        uint256 _tokenId\n    ) internal {\n        if (_from != address(0)) {\n            assert(balances[_from] > 0);\n\n            balances[_from]--;\n        }\n\n        tokenowners[_tokenId] = _to;\n        balances[_to]++;\n        // Account approved on this token should be revoked\n        delete tokenApprovers[_tokenId];\n\n        emit Transfer(_from, _to, _tokenId);\n    }\n\n    function createKittyGen0(uint256 _genes) public onlyOwner {\n        _createKitty(0, 0, 0, _genes, msg.sender);\n    }\n\n    function getKitty(uint256 _id)\n        public\n        view\n        returns (\n            uint256 genes,\n            uint256 birthTime,\n            uint32 mumId,\n            uint32 dadId,\n            uint16 generation\n        )\n    {\n        require(_id < kitties.length, \"Invalid cat id\");\n\n        Kitty storage kitty = kitties[_id];\n\n        genes = kitty.genes;\n        birthTime = kitty.birthTime;\n        mumId = kitty.mumId;\n        dadId = kitty.dadId;\n        generation = kitty.generation;\n    }\n\n    function _createKitty(\n        uint32 _mumId,\n        uint32 _dadId,\n        uint16 _generation,\n        uint256 _genes,\n        address _owner\n    ) internal returns (uint256) {\n        Kitty memory _kitty = Kitty({\n            genes: _genes,\n            birthTime: uint64(block.timestamp),\n            mumId: _mumId,\n            dadId: _dadId,\n            generation: _generation\n        });\n\n        kitties.push(_kitty);\n        uint256 newKittyTokenId = kitties.length - 1;\n\n        _transfer(address(0), _owner, newKittyTokenId);\n\n        emit Birth(_owner, newKittyTokenId, _dadId, _mumId, _genes);\n    }\n\n    function approve(address _approved, uint256 _tokenId) external{\n\n        require(_tokenId < kitties.length, \"Token id does not exist\");\n\n        //msg.sender must be the owner or an existing operator of tokenId\n        address tokenOwner = tokenowners[_tokenId];\n\n        require( (tokenOwner == msg.sender || ownerApprovers[tokenOwner][msg.sender] == true) , 'Caller is not owner of the token or an approver of the token owner'); \n\n        _approve(_approved, _tokenId);        \n\n    }\n\n    /// @notice Change or reaffirm the approved address for an NFT\n    /// @dev The zero address indicates there is no approved address.\n    ///  Throws unless `msg.sender` is the current NFT owner, or an authorized\n    ///  operator of the current owner.\n    /// @param _approved The new approved NFT controller\n    /// @param _tokenId The NFT to approve\n    function _approve(address _approved, uint256 _tokenId) private{\n\n        tokenApprovers[_tokenId] = _approved;     \n    }\n\n    /// @notice Enable or disable approval for a third party (\"operator\") to manage\n    ///  all of `msg.sender`'s assets\n    /// @dev Emits the ApprovalForAll event. The contract MUST allow\n    ///  multiple operators per owner.\n    /// @param _operator Address to add to the set of authorized operators\n    /// @param _approved True if the operator is approved, false to revoke approval\n    function setApprovalForAll(address _operator, bool _approved) external{\n        \n        ownerApprovers[msg.sender][_operator] = _approved;\n    }\n\n    /// @notice Get the approved address for a single NFT\n    /// @dev Throws if `_tokenId` is not a valid NFT.\n    /// @param _tokenId The NFT to find the approved address for\n    /// @return The approved address for this NFT, or the zero address if there is none\n    function getApproved(uint256 _tokenId) external view returns (address){\n        require(_tokenId < kitties.length, \"Invalid token id\");\n\n        return tokenApprovers[_tokenId];\n\n    }\n\n    /// @notice Query if an address is an authorized operator for another address\n    /// @param _owner The address that owns the NFTs\n    /// @param _operator The address that acts on behalf of the owner\n    /// @return True if `_operator` is an approved operator for `_owner`, false otherwise\n    function isApprovedForAll(address _owner, address _operator) external view returns (bool){\n        return ownerApprovers[_owner][_operator];\n    }\n\n}\n",
  "sourcePath": "/media/psf/Ivan/NFT-marketplace/mygitrepo/moralisacademy-nftmarketplace/contracts/Kittycontract.sol",
  "compiler": {
    "name": "solc",
    "version": "0.8.17+commit.8df45f5f.Emscripten.clang"
  },
  "schemaVersion": "3.4.10",
  "updatedAt": "2022-12-28T09:54:48.412Z",
  "devdoc": {
    "kind": "dev",
    "methods": {
      "approve(address,uint256)": {
        "details": "The zero address indicates there is no approved address.  Throws unless `msg.sender` is the current NFT owner, or an authorized  operator of the current owner.",
        "params": {
          "_approved": "The new approved NFT controller",
          "_tokenId": "The NFT to approve"
        }
      },
      "balanceOf(address)": {
        "details": "Returns the number of tokens in ``owner``'s account."
      },
      "getApproved(uint256)": {
        "details": "Throws if `_tokenId` is not a valid NFT.",
        "params": {
          "_tokenId": "The NFT to find the approved address for"
        },
        "returns": {
          "_0": "The approved address for this NFT, or the zero address if there is none"
        }
      },
      "isApprovedForAll(address,address)": {
        "params": {
          "_operator": "The address that acts on behalf of the owner",
          "_owner": "The address that owns the NFTs"
        },
        "returns": {
          "_0": "True if `_operator` is an approved operator for `_owner`, false otherwise"
        }
      },
      "owner()": {
        "details": "Returns the address of the current owner."
      },
      "renounceOwnership()": {
        "details": "Leaves the contract without owner. It will not be possible to call `onlyOwner` functions anymore. Can only be called by the current owner. NOTE: Renouncing ownership will leave the contract without an owner, thereby removing any functionality that is only available to the owner."
      },
      "setApprovalForAll(address,bool)": {
        "details": "Emits the ApprovalForAll event. The contract MUST allow  multiple operators per owner.",
        "params": {
          "_approved": "True if the operator is approved, false to revoke approval",
          "_operator": "Address to add to the set of authorized operators"
        }
      },
      "transferOwnership(address)": {
        "details": "Transfers ownership of the contract to a new account (`newOwner`). Can only be called by the current owner."
      }
    },
    "version": 1
  },
  "userdoc": {
    "kind": "user",
    "methods": {
      "approve(address,uint256)": {
        "notice": "Change or reaffirm the approved address for an NFT"
      },
      "getApproved(uint256)": {
        "notice": "Get the approved address for a single NFT"
      },
      "isApprovedForAll(address,address)": {
        "notice": "Query if an address is an authorized operator for another address"
      },
      "setApprovalForAll(address,bool)": {
        "notice": "Enable or disable approval for a third party (\"operator\") to manage  all of `msg.sender`'s assets"
      }
    },
    "version": 1
  }
}